{
  "_format": "hh-sol-artifact-1",
  "contractName": "Duckly",
  "sourceName": "contracts/Duckly.sol",
  "abi": [
    {
      "inputs": [
        {
          "internalType": "address",
          "name": "initialOwner",
          "type": "address"
        },
        {
          "internalType": "address",
          "name": "mydly",
          "type": "address"
        }
      ],
      "stateMutability": "nonpayable",
      "type": "constructor"
    },
    {
      "inputs": [],
      "name": "ContractPaused",
      "type": "error"
    },
    {
      "inputs": [],
      "name": "ERC721EnumerableForbiddenBatchMint",
      "type": "error"
    },
    {
      "inputs": [
        {
          "internalType": "address",
          "name": "sender",
          "type": "address"
        },
        {
          "internalType": "uint256",
          "name": "tokenId",
          "type": "uint256"
        },
        {
          "internalType": "address",
          "name": "owner",
          "type": "address"
        }
      ],
      "name": "ERC721IncorrectOwner",
      "type": "error"
    },
    {
      "inputs": [
        {
          "internalType": "address",
          "name": "operator",
          "type": "address"
        },
        {
          "internalType": "uint256",
          "name": "tokenId",
          "type": "uint256"
        }
      ],
      "name": "ERC721InsufficientApproval",
      "type": "error"
    },
    {
      "inputs": [
        {
          "internalType": "address",
          "name": "approver",
          "type": "address"
        }
      ],
      "name": "ERC721InvalidApprover",
      "type": "error"
    },
    {
      "inputs": [
        {
          "internalType": "address",
          "name": "operator",
          "type": "address"
        }
      ],
      "name": "ERC721InvalidOperator",
      "type": "error"
    },
    {
      "inputs": [
        {
          "internalType": "address",
          "name": "owner",
          "type": "address"
        }
      ],
      "name": "ERC721InvalidOwner",
      "type": "error"
    },
    {
      "inputs": [
        {
          "internalType": "address",
          "name": "receiver",
          "type": "address"
        }
      ],
      "name": "ERC721InvalidReceiver",
      "type": "error"
    },
    {
      "inputs": [
        {
          "internalType": "address",
          "name": "sender",
          "type": "address"
        }
      ],
      "name": "ERC721InvalidSender",
      "type": "error"
    },
    {
      "inputs": [
        {
          "internalType": "uint256",
          "name": "tokenId",
          "type": "uint256"
        }
      ],
      "name": "ERC721NonexistentToken",
      "type": "error"
    },
    {
      "inputs": [
        {
          "internalType": "address",
          "name": "owner",
          "type": "address"
        },
        {
          "internalType": "uint256",
          "name": "index",
          "type": "uint256"
        }
      ],
      "name": "ERC721OutOfBoundsIndex",
      "type": "error"
    },
    {
      "inputs": [],
      "name": "EnforcedPause",
      "type": "error"
    },
    {
      "inputs": [
        {
          "internalType": "uint256",
          "name": "requested",
          "type": "uint256"
        },
        {
          "internalType": "uint256",
          "name": "remaining",
          "type": "uint256"
        }
      ],
      "name": "ExceedsMaxSupply",
      "type": "error"
    },
    {
      "inputs": [],
      "name": "ExpectedPause",
      "type": "error"
    },
    {
      "inputs": [
        {
          "internalType": "uint256",
          "name": "provided",
          "type": "uint256"
        },
        {
          "internalType": "uint256",
          "name": "required",
          "type": "uint256"
        }
      ],
      "name": "InsufficientPayment",
      "type": "error"
    },
    {
      "inputs": [],
      "name": "InvalidBaseURI",
      "type": "error"
    },
    {
      "inputs": [
        {
          "internalType": "uint256",
          "name": "quantity",
          "type": "uint256"
        }
      ],
      "name": "InvalidQuantity",
      "type": "error"
    },
    {
      "inputs": [
        {
          "internalType": "uint256",
          "name": "provided",
          "type": "uint256"
        },
        {
          "internalType": "uint256",
          "name": "required",
          "type": "uint256"
        }
      ],
      "name": "MinimumQuantityNotMet",
      "type": "error"
    },
    {
      "inputs": [],
      "name": "NotAuthorized",
      "type": "error"
    },
    {
      "inputs": [
        {
          "internalType": "address",
          "name": "owner",
          "type": "address"
        }
      ],
      "name": "OwnableInvalidOwner",
      "type": "error"
    },
    {
      "inputs": [
        {
          "internalType": "address",
          "name": "account",
          "type": "address"
        }
      ],
      "name": "OwnableUnauthorizedAccount",
      "type": "error"
    },
    {
      "inputs": [],
      "name": "ReentrancyGuardReentrantCall",
      "type": "error"
    },
    {
      "inputs": [],
      "name": "WithdrawDelayNotMet",
      "type": "error"
    },
    {
      "inputs": [],
      "name": "WithdrawFailed",
      "type": "error"
    },
    {
      "inputs": [],
      "name": "ZeroAddress",
      "type": "error"
    },
    {
      "anonymous": false,
      "inputs": [
        {
          "indexed": true,
          "internalType": "address",
          "name": "owner",
          "type": "address"
        },
        {
          "indexed": true,
          "internalType": "address",
          "name": "approved",
          "type": "address"
        },
        {
          "indexed": true,
          "internalType": "uint256",
          "name": "tokenId",
          "type": "uint256"
        }
      ],
      "name": "Approval",
      "type": "event"
    },
    {
      "anonymous": false,
      "inputs": [
        {
          "indexed": true,
          "internalType": "address",
          "name": "owner",
          "type": "address"
        },
        {
          "indexed": true,
          "internalType": "address",
          "name": "operator",
          "type": "address"
        },
        {
          "indexed": false,
          "internalType": "bool",
          "name": "approved",
          "type": "bool"
        }
      ],
      "name": "ApprovalForAll",
      "type": "event"
    },
    {
      "anonymous": false,
      "inputs": [
        {
          "indexed": false,
          "internalType": "string",
          "name": "newBaseURI",
          "type": "string"
        }
      ],
      "name": "BaseURIUpdated",
      "type": "event"
    },
    {
      "anonymous": false,
      "inputs": [
        {
          "indexed": true,
          "internalType": "address",
          "name": "from",
          "type": "address"
        },
        {
          "indexed": false,
          "internalType": "uint256[]",
          "name": "tokenIds",
          "type": "uint256[]"
        }
      ],
      "name": "BatchBurned",
      "type": "event"
    },
    {
      "anonymous": false,
      "inputs": [
        {
          "indexed": false,
          "internalType": "uint256",
          "name": "_fromTokenId",
          "type": "uint256"
        },
        {
          "indexed": false,
          "internalType": "uint256",
          "name": "_toTokenId",
          "type": "uint256"
        }
      ],
      "name": "BatchMetadataUpdate",
      "type": "event"
    },
    {
      "anonymous": false,
      "inputs": [
        {
          "indexed": true,
          "internalType": "address",
          "name": "to",
          "type": "address"
        },
        {
          "indexed": false,
          "internalType": "uint256",
          "name": "startTokenId",
          "type": "uint256"
        },
        {
          "indexed": false,
          "internalType": "uint256",
          "name": "quantity",
          "type": "uint256"
        },
        {
          "indexed": false,
          "internalType": "uint256",
          "name": "price",
          "type": "uint256"
        }
      ],
      "name": "BatchMint",
      "type": "event"
    },
    {
      "anonymous": false,
      "inputs": [
        {
          "indexed": false,
          "internalType": "uint256",
          "name": "_tokenId",
          "type": "uint256"
        }
      ],
      "name": "MetadataUpdate",
      "type": "event"
    },
    {
      "anonymous": false,
      "inputs": [
        {
          "indexed": true,
          "internalType": "address",
          "name": "minter",
          "type": "address"
        }
      ],
      "name": "MinterAdded",
      "type": "event"
    },
    {
      "anonymous": false,
      "inputs": [
        {
          "indexed": true,
          "internalType": "address",
          "name": "minter",
          "type": "address"
        }
      ],
      "name": "MinterRemoved",
      "type": "event"
    },
    {
      "anonymous": false,
      "inputs": [
        {
          "indexed": true,
          "internalType": "address",
          "name": "previousOwner",
          "type": "address"
        },
        {
          "indexed": true,
          "internalType": "address",
          "name": "newOwner",
          "type": "address"
        }
      ],
      "name": "OwnershipTransferred",
      "type": "event"
    },
    {
      "anonymous": false,
      "inputs": [
        {
          "indexed": false,
          "internalType": "address",
          "name": "account",
          "type": "address"
        }
      ],
      "name": "Paused",
      "type": "event"
    },
    {
      "anonymous": false,
      "inputs": [
        {
          "indexed": true,
          "internalType": "address",
          "name": "from",
          "type": "address"
        },
        {
          "indexed": false,
          "internalType": "uint256",
          "name": "amount",
          "type": "uint256"
        },
        {
          "indexed": false,
          "internalType": "uint256",
          "name": "discount",
          "type": "uint256"
        }
      ],
      "name": "PaymentProcessed",
      "type": "event"
    },
    {
      "anonymous": false,
      "inputs": [
        {
          "indexed": true,
          "internalType": "address",
          "name": "from",
          "type": "address"
        },
        {
          "indexed": true,
          "internalType": "address",
          "name": "to",
          "type": "address"
        },
        {
          "indexed": true,
          "internalType": "uint256",
          "name": "tokenId",
          "type": "uint256"
        }
      ],
      "name": "Transfer",
      "type": "event"
    },
    {
      "anonymous": false,
      "inputs": [
        {
          "indexed": false,
          "internalType": "address",
          "name": "account",
          "type": "address"
        }
      ],
      "name": "Unpaused",
      "type": "event"
    },
    {
      "anonymous": false,
      "inputs": [
        {
          "indexed": true,
          "internalType": "address",
          "name": "to",
          "type": "address"
        },
        {
          "indexed": false,
          "internalType": "uint256",
          "name": "amount",
          "type": "uint256"
        }
      ],
      "name": "WithdrawProcessed",
      "type": "event"
    },
    {
      "inputs": [],
      "name": "MAX_SUPPLY_GENESIS",
      "outputs": [
        {
          "internalType": "uint256",
          "name": "",
          "type": "uint256"
        }
      ],
      "stateMutability": "view",
      "type": "function"
    },
    {
      "inputs": [],
      "name": "MYDLY",
      "outputs": [
        {
          "internalType": "contract IERC20",
          "name": "",
          "type": "address"
        }
      ],
      "stateMutability": "view",
      "type": "function"
    },
    {
      "inputs": [],
      "name": "PUBLIC_MINT_PRICE",
      "outputs": [
        {
          "internalType": "uint256",
          "name": "",
          "type": "uint256"
        }
      ],
      "stateMutability": "view",
      "type": "function"
    },
    {
      "inputs": [
        {
          "internalType": "address",
          "name": "minter",
          "type": "address"
        }
      ],
      "name": "addMinter",
      "outputs": [],
      "stateMutability": "nonpayable",
      "type": "function"
    },
    {
      "inputs": [
        {
          "internalType": "address",
          "name": "to",
          "type": "address"
        },
        {
          "internalType": "uint256",
          "name": "tokenId",
          "type": "uint256"
        }
      ],
      "name": "approve",
      "outputs": [],
      "stateMutability": "nonpayable",
      "type": "function"
    },
    {
      "inputs": [
        {
          "internalType": "address",
          "name": "owner",
          "type": "address"
        }
      ],
      "name": "balanceOf",
      "outputs": [
        {
          "internalType": "uint256",
          "name": "",
          "type": "uint256"
        }
      ],
      "stateMutability": "view",
      "type": "function"
    },
    {
      "inputs": [
        {
          "internalType": "uint256[]",
          "name": "tokenIds",
          "type": "uint256[]"
        }
      ],
      "name": "batchBurn",
      "outputs": [],
      "stateMutability": "nonpayable",
      "type": "function"
    },
    {
      "inputs": [
        {
          "internalType": "uint256",
          "name": "tokenId",
          "type": "uint256"
        }
      ],
      "name": "burn",
      "outputs": [],
      "stateMutability": "nonpayable",
      "type": "function"
    },
    {
      "inputs": [
        {
          "internalType": "uint256",
          "name": "tokenId",
          "type": "uint256"
        }
      ],
      "name": "getApproved",
      "outputs": [
        {
          "internalType": "address",
          "name": "",
          "type": "address"
        }
      ],
      "stateMutability": "view",
      "type": "function"
    },
    {
      "inputs": [],
      "name": "getNextTokenId",
      "outputs": [
        {
          "internalType": "uint256",
          "name": "",
          "type": "uint256"
        }
      ],
      "stateMutability": "view",
      "type": "function"
    },
    {
      "inputs": [
        {
          "internalType": "address",
          "name": "owner",
          "type": "address"
        },
        {
          "internalType": "address",
          "name": "operator",
          "type": "address"
        }
      ],
      "name": "isApprovedForAll",
      "outputs": [
        {
          "internalType": "bool",
          "name": "",
          "type": "bool"
        }
      ],
      "stateMutability": "view",
      "type": "function"
    },
    {
      "inputs": [
        {
          "internalType": "address",
          "name": "to",
          "type": "address"
        },
        {
          "internalType": "uint256",
          "name": "quantity",
          "type": "uint256"
        }
      ],
      "name": "mintBulk",
      "outputs": [],
      "stateMutability": "nonpayable",
      "type": "function"
    },
    {
      "inputs": [
        {
          "internalType": "address",
          "name": "to",
          "type": "address"
        }
      ],
      "name": "mintFive",
      "outputs": [],
      "stateMutability": "nonpayable",
      "type": "function"
    },
    {
      "inputs": [
        {
          "internalType": "address",
          "name": "to",
          "type": "address"
        }
      ],
      "name": "mintThree",
      "outputs": [],
      "stateMutability": "nonpayable",
      "type": "function"
    },
    {
      "inputs": [
        {
          "internalType": "address",
          "name": "",
          "type": "address"
        }
      ],
      "name": "minters",
      "outputs": [
        {
          "internalType": "bool",
          "name": "",
          "type": "bool"
        }
      ],
      "stateMutability": "view",
      "type": "function"
    },
    {
      "inputs": [],
      "name": "name",
      "outputs": [
        {
          "internalType": "string",
          "name": "",
          "type": "string"
        }
      ],
      "stateMutability": "view",
      "type": "function"
    },
    {
      "inputs": [
        {
          "internalType": "address",
          "name": "to",
          "type": "address"
        },
        {
          "internalType": "uint256",
          "name": "quantity",
          "type": "uint256"
        }
      ],
      "name": "offchainMint",
      "outputs": [],
      "stateMutability": "nonpayable",
      "type": "function"
    },
    {
      "inputs": [],
      "name": "owner",
      "outputs": [
        {
          "internalType": "address",
          "name": "",
          "type": "address"
        }
      ],
      "stateMutability": "view",
      "type": "function"
    },
    {
      "inputs": [
        {
          "internalType": "uint256",
          "name": "tokenId",
          "type": "uint256"
        }
      ],
      "name": "ownerOf",
      "outputs": [
        {
          "internalType": "address",
          "name": "",
          "type": "address"
        }
      ],
      "stateMutability": "view",
      "type": "function"
    },
    {
      "inputs": [],
      "name": "pause",
      "outputs": [],
      "stateMutability": "nonpayable",
      "type": "function"
    },
    {
      "inputs": [],
      "name": "paused",
      "outputs": [
        {
          "internalType": "bool",
          "name": "",
          "type": "bool"
        }
      ],
      "stateMutability": "view",
      "type": "function"
    },
    {
      "inputs": [],
      "name": "remainingTokens",
      "outputs": [
        {
          "internalType": "uint256",
          "name": "",
          "type": "uint256"
        }
      ],
      "stateMutability": "view",
      "type": "function"
    },
    {
      "inputs": [
        {
          "internalType": "address",
          "name": "minter",
          "type": "address"
        }
      ],
      "name": "removeMinter",
      "outputs": [],
      "stateMutability": "nonpayable",
      "type": "function"
    },
    {
      "inputs": [],
      "name": "renounceOwnership",
      "outputs": [],
      "stateMutability": "nonpayable",
      "type": "function"
    },
    {
      "inputs": [
        {
          "internalType": "address",
          "name": "to",
          "type": "address"
        }
      ],
      "name": "safeMint",
      "outputs": [],
      "stateMutability": "nonpayable",
      "type": "function"
    },
    {
      "inputs": [
        {
          "internalType": "address",
          "name": "from",
          "type": "address"
        },
        {
          "internalType": "address",
          "name": "to",
          "type": "address"
        },
        {
          "internalType": "uint256",
          "name": "tokenId",
          "type": "uint256"
        }
      ],
      "name": "safeTransferFrom",
      "outputs": [],
      "stateMutability": "nonpayable",
      "type": "function"
    },
    {
      "inputs": [
        {
          "internalType": "address",
          "name": "from",
          "type": "address"
        },
        {
          "internalType": "address",
          "name": "to",
          "type": "address"
        },
        {
          "internalType": "uint256",
          "name": "tokenId",
          "type": "uint256"
        },
        {
          "internalType": "bytes",
          "name": "data",
          "type": "bytes"
        }
      ],
      "name": "safeTransferFrom",
      "outputs": [],
      "stateMutability": "nonpayable",
      "type": "function"
    },
    {
      "inputs": [
        {
          "internalType": "address",
          "name": "operator",
          "type": "address"
        },
        {
          "internalType": "bool",
          "name": "approved",
          "type": "bool"
        }
      ],
      "name": "setApprovalForAll",
      "outputs": [],
      "stateMutability": "nonpayable",
      "type": "function"
    },
    {
      "inputs": [
        {
          "internalType": "string",
          "name": "newBaseURI",
          "type": "string"
        }
      ],
      "name": "setBaseURI",
      "outputs": [],
      "stateMutability": "nonpayable",
      "type": "function"
    },
    {
      "inputs": [
        {
          "internalType": "bytes4",
          "name": "interfaceId",
          "type": "bytes4"
        }
      ],
      "name": "supportsInterface",
      "outputs": [
        {
          "internalType": "bool",
          "name": "",
          "type": "bool"
        }
      ],
      "stateMutability": "view",
      "type": "function"
    },
    {
      "inputs": [],
      "name": "symbol",
      "outputs": [
        {
          "internalType": "string",
          "name": "",
          "type": "string"
        }
      ],
      "stateMutability": "view",
      "type": "function"
    },
    {
      "inputs": [
        {
          "internalType": "uint256",
          "name": "index",
          "type": "uint256"
        }
      ],
      "name": "tokenByIndex",
      "outputs": [
        {
          "internalType": "uint256",
          "name": "",
          "type": "uint256"
        }
      ],
      "stateMutability": "view",
      "type": "function"
    },
    {
      "inputs": [
        {
          "internalType": "address",
          "name": "owner",
          "type": "address"
        },
        {
          "internalType": "uint256",
          "name": "index",
          "type": "uint256"
        }
      ],
      "name": "tokenOfOwnerByIndex",
      "outputs": [
        {
          "internalType": "uint256",
          "name": "",
          "type": "uint256"
        }
      ],
      "stateMutability": "view",
      "type": "function"
    },
    {
      "inputs": [
        {
          "internalType": "uint256",
          "name": "tokenId",
          "type": "uint256"
        }
      ],
      "name": "tokenURI",
      "outputs": [
        {
          "internalType": "string",
          "name": "",
          "type": "string"
        }
      ],
      "stateMutability": "view",
      "type": "function"
    },
    {
      "inputs": [],
      "name": "totalSupply",
      "outputs": [
        {
          "internalType": "uint256",
          "name": "",
          "type": "uint256"
        }
      ],
      "stateMutability": "view",
      "type": "function"
    },
    {
      "inputs": [
        {
          "internalType": "address",
          "name": "from",
          "type": "address"
        },
        {
          "internalType": "address",
          "name": "to",
          "type": "address"
        },
        {
          "internalType": "uint256",
          "name": "tokenId",
          "type": "uint256"
        }
      ],
      "name": "transferFrom",
      "outputs": [],
      "stateMutability": "nonpayable",
      "type": "function"
    },
    {
      "inputs": [
        {
          "internalType": "address",
          "name": "newOwner",
          "type": "address"
        }
      ],
      "name": "transferOwnership",
      "outputs": [],
      "stateMutability": "nonpayable",
      "type": "function"
    },
    {
      "inputs": [],
      "name": "unpause",
      "outputs": [],
      "stateMutability": "nonpayable",
      "type": "function"
    },
    {
      "inputs": [],
      "name": "withdraw",
      "outputs": [],
      "stateMutability": "nonpayable",
      "type": "function"
    }
  ],
  "bytecode": "0x60a060405234801561001057600080fd5b5060405161501a38038061501a8339818101604052810190610032919061035f565b816040518060400160405280600681526020017f4475636b6c7900000000000000000000000000000000000000000000000000008152506040518060400160405280600381526020017f444b59000000000000000000000000000000000000000000000000000000000081525081600090816100ae91906105ef565b5080600190816100be91906105ef565b5050506000600b60006101000a81548160ff021916908315150217905550600073ffffffffffffffffffffffffffffffffffffffff168173ffffffffffffffffffffffffffffffffffffffff160361014e5760006040517f1e4fbdf700000000000000000000000000000000000000000000000000000000815260040161014591906106d0565b60405180910390fd5b61015d8161023660201b60201c565b506001600c81905550600073ffffffffffffffffffffffffffffffffffffffff168173ffffffffffffffffffffffffffffffffffffffff16036101cc576040517fd92e233d00000000000000000000000000000000000000000000000000000000815260040160405180910390fd5b8073ffffffffffffffffffffffffffffffffffffffff1660808173ffffffffffffffffffffffffffffffffffffffff1681525050604051806060016040528060288152602001614ff260289139600e908161022791906105ef565b5042600f8190555050506106eb565b6000600b60019054906101000a900473ffffffffffffffffffffffffffffffffffffffff16905081600b60016101000a81548173ffffffffffffffffffffffffffffffffffffffff021916908373ffffffffffffffffffffffffffffffffffffffff1602179055508173ffffffffffffffffffffffffffffffffffffffff168173ffffffffffffffffffffffffffffffffffffffff167f8be0079c531659141344cd1fd0a4f28419497f9722a3daafe3b4186f6b6457e060405160405180910390a35050565b600080fd5b600073ffffffffffffffffffffffffffffffffffffffff82169050919050565b600061032c82610301565b9050919050565b61033c81610321565b811461034757600080fd5b50565b60008151905061035981610333565b92915050565b60008060408385031215610376576103756102fc565b5b60006103848582860161034a565b92505060206103958582860161034a565b9150509250929050565b600081519050919050565b7f4e487b7100000000000000000000000000000000000000000000000000000000600052604160045260246000fd5b7f4e487b7100000000000000000000000000000000000000000000000000000000600052602260045260246000fd5b6000600282049050600182168061042057607f821691505b602082108103610433576104326103d9565b5b50919050565b60008190508160005260206000209050919050565b60006020601f8301049050919050565b600082821b905092915050565b60006008830261049b7fffffffffffffffffffffffffffffffffffffffffffffffffffffffffffffffff8261045e565b6104a5868361045e565b95508019841693508086168417925050509392505050565b6000819050919050565b6000819050919050565b60006104ec6104e76104e2846104bd565b6104c7565b6104bd565b9050919050565b6000819050919050565b610506836104d1565b61051a610512826104f3565b84845461046b565b825550505050565b600090565b61052f610522565b61053a8184846104fd565b505050565b5b8181101561055e57610553600082610527565b600181019050610540565b5050565b601f8211156105a35761057481610439565b61057d8461044e565b8101602085101561058c578190505b6105a06105988561044e565b83018261053f565b50505b505050565b600082821c905092915050565b60006105c6600019846008026105a8565b1980831691505092915050565b60006105df83836105b5565b9150826002028217905092915050565b6105f88261039f565b67ffffffffffffffff811115610611576106106103aa565b5b61061b8254610408565b610626828285610562565b600060209050601f8311600181146106595760008415610647578287015190505b61065185826105d3565b8655506106b9565b601f19841661066786610439565b60005b8281101561068f5784890151825560018201915060208501945060208101905061066a565b868310156106ac57848901516106a8601f8916826105b5565b8355505b6001600288020188555050505b505050505050565b6106ca81610321565b82525050565b60006020820190506106e560008301846106c1565b92915050565b6080516148c961072960003960008181610bd601528181610cb5015281816116fd01528181611d8101528181611e230152611eff01526148c96000f3fe608060405234801561001057600080fd5b506004361061023d5760003560e01c80636bde26271161013b578063bca4d166116100b8578063dc8e92ea1161007c578063dc8e92ea14610652578063e985e9c51461066e578063f2fde38b1461069e578063f3f47f12146106ba578063f46eccc4146106d65761023d565b8063bca4d166146105ac578063bf583903146105c8578063c30215e8146105e6578063c87b56dd14610604578063caa0f92a146106345761023d565b806395d89b41116100ff57806395d89b411461051e578063983b2d561461053c578063a22cb46514610558578063ac5ef88b14610574578063b88d4fde146105905761023d565b80636bde26271461049e57806370a08231146104bc578063715018a6146104ec5780638456cb59146104f65780638da5cb5b146105005761023d565b80633092afd5116101c957806342966c681161018d57806342966c68146103e85780634f6ccce71461040457806355f804b3146104345780635c975abb146104505780636352211e1461046e5761023d565b80633092afd5146103805780633ccfd60b1461039c5780633f4ba83a146103a657806340d097c3146103b057806342842e0e146103cc5761023d565b80630c142a43116102105780630c142a43146102dc57806318160ddd146102fa5780631d2ee8631461031857806323b872dd146103345780632f745c59146103505761023d565b806301ffc9a71461024257806306fdde0314610272578063081812fc14610290578063095ea7b3146102c0575b600080fd5b61025c60048036038101906102579190613716565b610706565b604051610269919061375e565b60405180910390f35b61027a610718565b6040516102879190613809565b60405180910390f35b6102aa60048036038101906102a59190613861565b6107aa565b6040516102b791906138cf565b60405180910390f35b6102da60048036038101906102d59190613916565b6107c6565b005b6102e46107dc565b6040516102f19190613965565b60405180910390f35b6103026107e2565b60405161030f9190613965565b60405180910390f35b610332600480360381019061032d9190613980565b6107ef565b005b61034e600480360381019061034991906139ad565b610927565b005b61036a60048036038101906103659190613916565b610a29565b6040516103779190613965565b60405180910390f35b61039a60048036038101906103959190613980565b610ad2565b005b6103a4610b78565b005b6103ae610de4565b005b6103ca60048036038101906103c59190613980565b610df6565b005b6103e660048036038101906103e191906139ad565b610ef0565b005b61040260048036038101906103fd9190613861565b610f10565b005b61041e60048036038101906104199190613861565b610f27565b60405161042b9190613965565b60405180910390f35b61044e60048036038101906104499190613a65565b610f9d565b005b610458611031565b604051610465919061375e565b60405180910390f35b61048860048036038101906104839190613861565b611048565b60405161049591906138cf565b60405180910390f35b6104a661105a565b6040516104b39190613965565b60405180910390f35b6104d660048036038101906104d19190613980565b611067565b6040516104e39190613965565b60405180910390f35b6104f4611121565b005b6104fe611135565b005b610508611147565b60405161051591906138cf565b60405180910390f35b610526611171565b6040516105339190613809565b60405180910390f35b61055660048036038101906105519190613980565b611203565b005b610572600480360381019061056d9190613ade565b61130f565b005b61058e60048036038101906105899190613916565b611325565b005b6105aa60048036038101906105a59190613c4e565b61151c565b005b6105c660048036038101906105c19190613916565b611541565b005b6105d06116be565b6040516105dd9190613965565b60405180910390f35b6105ee6116fb565b6040516105fb9190613d30565b60405180910390f35b61061e60048036038101906106199190613861565b61171f565b60405161062b9190613809565b60405180910390f35b61063c611731565b6040516106499190613965565b60405180910390f35b61066c60048036038101906106679190613da1565b611761565b005b61068860048036038101906106839190613dee565b6117f7565b604051610695919061375e565b60405180910390f35b6106b860048036038101906106b39190613980565b61188b565b005b6106d460048036038101906106cf9190613980565b611911565b005b6106f060048036038101906106eb9190613980565b611a49565b6040516106fd919061375e565b60405180910390f35b600061071182611a69565b9050919050565b60606000805461072790613e5d565b80601f016020809104026020016040519081016040528092919081815260200182805461075390613e5d565b80156107a05780601f10610775576101008083540402835291602001916107a0565b820191906000526020600020905b81548152906001019060200180831161078357829003601f168201915b5050505050905090565b60006107b582611aca565b506107bf82611b52565b9050919050565b6107d882826107d3611b8f565b611b97565b5050565b610fa081565b6000600880549050905090565b6107f7611ba9565b600073ffffffffffffffffffffffffffffffffffffffff168173ffffffffffffffffffffffffffffffffffffffff160361085d576040517fd92e233d00000000000000000000000000000000000000000000000000000000815260040160405180910390fd5b60006108696005611bef565b90506108776005600f611d42565b60005b600581101561089a5761088f8382840161203a565b80600101905061087a565b508173ffffffffffffffffffffffffffffffffffffffff167f6a123eb164deae6ca236b0c6099ae40d79532c269c6fcc59c8b15c99fbbd123d82600560646055600568056bc75e2d631000006108f09190613ebd565b6108fa9190613ebd565b6109049190613f2e565b60405161091393929190613f9a565b60405180910390a250610924612058565b50565b600073ffffffffffffffffffffffffffffffffffffffff168273ffffffffffffffffffffffffffffffffffffffff16036109995760006040517f64a0ae9200000000000000000000000000000000000000000000000000000000815260040161099091906138cf565b60405180910390fd5b60006109ad83836109a8611b8f565b612062565b90508373ffffffffffffffffffffffffffffffffffffffff168173ffffffffffffffffffffffffffffffffffffffff1614610a23578382826040517f64283d7b000000000000000000000000000000000000000000000000000000008152600401610a1a93929190613fd1565b60405180910390fd5b50505050565b6000610a3483611067565b8210610a795782826040517fa57d13dc000000000000000000000000000000000000000000000000000000008152600401610a70929190614008565b60405180910390fd5b600660008473ffffffffffffffffffffffffffffffffffffffff1673ffffffffffffffffffffffffffffffffffffffff168152602001908152602001600020600083815260200190815260200160002054905092915050565b610ada612078565b6000601060008373ffffffffffffffffffffffffffffffffffffffff1673ffffffffffffffffffffffffffffffffffffffff16815260200190815260200160002060006101000a81548160ff0219169083151502179055508073ffffffffffffffffffffffffffffffffffffffff167fe94479a9f7e1952cc78f2d6baab678adc1b772d936c6583def489e524cb6669260405160405180910390a250565b610b80612078565b610b88611ba9565b62015180600f54610b999190614031565b421015610bd2576040517f93103e6c00000000000000000000000000000000000000000000000000000000815260040160405180910390fd5b60007f000000000000000000000000000000000000000000000000000000000000000073ffffffffffffffffffffffffffffffffffffffff166370a08231306040518263ffffffff1660e01b8152600401610c2d91906138cf565b602060405180830381865afa158015610c4a573d6000803e3d6000fd5b505050506040513d601f19601f82011682018060405250810190610c6e919061407a565b905060008103610caa576040517f750b219c00000000000000000000000000000000000000000000000000000000815260040160405180910390fd5b42600f8190555060007f000000000000000000000000000000000000000000000000000000000000000073ffffffffffffffffffffffffffffffffffffffff1663a9059cbb33846040518363ffffffff1660e01b8152600401610d0e929190614008565b6020604051808303816000875af1158015610d2d573d6000803e3d6000fd5b505050506040513d601f19601f82011682018060405250810190610d5191906140bc565b905080610d8a576040517f750b219c00000000000000000000000000000000000000000000000000000000815260040160405180910390fd5b3373ffffffffffffffffffffffffffffffffffffffff167f44b2ff9ffcefe2052a8afdbed44a04bf3db4592ae90c6b96c818bd28573e41e883604051610dd09190613965565b60405180910390a25050610de2612058565b565b610dec612078565b610df46120ff565b565b610dfe611ba9565b600073ffffffffffffffffffffffffffffffffffffffff168173ffffffffffffffffffffffffffffffffffffffff1603610e64576040517fd92e233d00000000000000000000000000000000000000000000000000000000815260040160405180910390fd5b6000610e706001611bef565b9050610e7e60016000611d42565b610e88828261203a565b8173ffffffffffffffffffffffffffffffffffffffff167f6a123eb164deae6ca236b0c6099ae40d79532c269c6fcc59c8b15c99fbbd123d82600168056bc75e2d63100000604051610edc93929190614124565b60405180910390a250610eed612058565b50565b610f0b8383836040518060200160405280600081525061151c565b505050565b610f23600082610f1e611b8f565b612062565b5050565b6000610f316107e2565b8210610f77576000826040517fa57d13dc000000000000000000000000000000000000000000000000000000008152600401610f6e929190614008565b60405180910390fd5b60088281548110610f8b57610f8a61415b565b5b90600052602060002001549050919050565b610fa5612078565b60008282905003610fe2576040517fcc52148300000000000000000000000000000000000000000000000000000000815260040160405180910390fd5b8181600e9182610ff3929190614337565b507f6741b2fc379fad678116fe3d4d4b9a1a184ab53ba36b86ad0fa66340b1ab41ad8282604051611025929190614434565b60405180910390a15050565b6000600b60009054906101000a900460ff16905090565b600061105382611aca565b9050919050565b68056bc75e2d6310000081565b60008073ffffffffffffffffffffffffffffffffffffffff168273ffffffffffffffffffffffffffffffffffffffff16036110da5760006040517f89c62b640000000000000000000000000000000000000000000000000000000081526004016110d191906138cf565b60405180910390fd5b600360008373ffffffffffffffffffffffffffffffffffffffff1673ffffffffffffffffffffffffffffffffffffffff168152602001908152602001600020549050919050565b611129612078565b6111336000612162565b565b61113d612078565b611145612228565b565b6000600b60019054906101000a900473ffffffffffffffffffffffffffffffffffffffff16905090565b60606001805461118090613e5d565b80601f01602080910402602001604051908101604052809291908181526020018280546111ac90613e5d565b80156111f95780601f106111ce576101008083540402835291602001916111f9565b820191906000526020600020905b8154815290600101906020018083116111dc57829003601f168201915b5050505050905090565b61120b612078565b600073ffffffffffffffffffffffffffffffffffffffff168173ffffffffffffffffffffffffffffffffffffffff1603611271576040517fd92e233d00000000000000000000000000000000000000000000000000000000815260040160405180910390fd5b6001601060008373ffffffffffffffffffffffffffffffffffffffff1673ffffffffffffffffffffffffffffffffffffffff16815260200190815260200160002060006101000a81548160ff0219169083151502179055508073ffffffffffffffffffffffffffffffffffffffff167f6ae172837ea30b801fbfcdd4108aa1d5bf8ff775444fd70256b44e6bf3dfc3f660405160405180910390a250565b61132161131a611b8f565b838361228b565b5050565b601060003373ffffffffffffffffffffffffffffffffffffffff1673ffffffffffffffffffffffffffffffffffffffff16815260200190815260200160002060009054906101000a900460ff161580156113b25750611382611147565b73ffffffffffffffffffffffffffffffffffffffff163373ffffffffffffffffffffffffffffffffffffffff1614155b156113e9576040517fea8e4eb500000000000000000000000000000000000000000000000000000000815260040160405180910390fd5b600073ffffffffffffffffffffffffffffffffffffffff168273ffffffffffffffffffffffffffffffffffffffff160361144f576040517fd92e233d00000000000000000000000000000000000000000000000000000000815260040160405180910390fd5b6000810361149457806040517fad525a9600000000000000000000000000000000000000000000000000000000815260040161148b9190613965565b60405180910390fd5b600061149f82611bef565b905060005b828110156114c3576114b88482840161203a565b8060010190506114a4565b508273ffffffffffffffffffffffffffffffffffffffff167f6a123eb164deae6ca236b0c6099ae40d79532c269c6fcc59c8b15c99fbbd123d8284600060405161150f93929190614493565b60405180910390a2505050565b611527848484610927565b61153b611532611b8f565b858585856123fa565b50505050565b611549611ba9565b600073ffffffffffffffffffffffffffffffffffffffff168273ffffffffffffffffffffffffffffffffffffffff16036115af576040517fd92e233d00000000000000000000000000000000000000000000000000000000815260040160405180910390fd5b60058110156115f8578060056040517f41a75aae0000000000000000000000000000000000000000000000000000000081526004016115ef9291906144ca565b60405180910390fd5b600061160382611bef565b905061161082600f611d42565b60005b82811015611632576116278482840161203a565b806001019050611613565b508273ffffffffffffffffffffffffffffffffffffffff167f6a123eb164deae6ca236b0c6099ae40d79532c269c6fcc59c8b15c99fbbd123d8284606460558768056bc75e2d631000006116869190613ebd565b6116909190613ebd565b61169a9190613f2e565b6040516116a9939291906144f3565b60405180910390a2506116ba612058565b5050565b6000600d60009054906101000a90046bffffffffffffffffffffffff166bffffffffffffffffffffffff16610fa06116f6919061452a565b905090565b7f000000000000000000000000000000000000000000000000000000000000000081565b606061172a826125ab565b9050919050565b6000600d60009054906101000a90046bffffffffffffffffffffffff166bffffffffffffffffffffffff16905090565b600082829050905060005b818110156117a15761179684848381811061178a5761178961415b565b5b90506020020135610f10565b80600101905061176c565b503373ffffffffffffffffffffffffffffffffffffffff167f0ce69e386b731ca999da815088da00cfe7585ee9110977ce177bbb7b5ca5b8d784846040516117ea9291906145d9565b60405180910390a2505050565b6000600560008473ffffffffffffffffffffffffffffffffffffffff1673ffffffffffffffffffffffffffffffffffffffff16815260200190815260200160002060008373ffffffffffffffffffffffffffffffffffffffff1673ffffffffffffffffffffffffffffffffffffffff16815260200190815260200160002060009054906101000a900460ff16905092915050565b611893612078565b600073ffffffffffffffffffffffffffffffffffffffff168173ffffffffffffffffffffffffffffffffffffffff16036119055760006040517f1e4fbdf70000000000000000000000000000000000000000000000000000000081526004016118fc91906138cf565b60405180910390fd5b61190e81612162565b50565b611919611ba9565b600073ffffffffffffffffffffffffffffffffffffffff168173ffffffffffffffffffffffffffffffffffffffff160361197f576040517fd92e233d00000000000000000000000000000000000000000000000000000000815260040160405180910390fd5b600061198b6003611bef565b90506119996003600a611d42565b60005b60038110156119bc576119b18382840161203a565b80600101905061199c565b508173ffffffffffffffffffffffffffffffffffffffff167f6a123eb164deae6ca236b0c6099ae40d79532c269c6fcc59c8b15c99fbbd123d8260036064605a600368056bc75e2d63100000611a129190613ebd565b611a1c9190613ebd565b611a269190613f2e565b604051611a3593929190614638565b60405180910390a250611a46612058565b50565b60106020528060005260406000206000915054906101000a900460ff1681565b6000634906490660e01b7bffffffffffffffffffffffffffffffffffffffffffffffffffffffff1916827bffffffffffffffffffffffffffffffffffffffffffffffffffffffff19161480611ac35750611ac2826126be565b5b9050919050565b600080611ad683612738565b9050600073ffffffffffffffffffffffffffffffffffffffff168173ffffffffffffffffffffffffffffffffffffffff1603611b4957826040517f7e273289000000000000000000000000000000000000000000000000000000008152600401611b409190613965565b60405180910390fd5b80915050919050565b60006004600083815260200190815260200160002060009054906101000a900473ffffffffffffffffffffffffffffffffffffffff169050919050565b600033905090565b611ba48383836001612775565b505050565b6002600c5403611be5576040517f3ee5aeb500000000000000000000000000000000000000000000000000000000815260040160405180910390fd5b6002600c81905550565b6000808203611c3557816040517fad525a96000000000000000000000000000000000000000000000000000000008152600401611c2c9190613965565b60405180910390fd5b611c3d611031565b15611c74576040517fab35696f00000000000000000000000000000000000000000000000000000000815260040160405180910390fd5b6000600d60009054906101000a90046bffffffffffffffffffffffff166bffffffffffffffffffffffff16905060008382611caf9190614031565b9050610fa0811115611d07578382610fa0611cca919061452a565b6040517fadc3cee5000000000000000000000000000000000000000000000000000000008152600401611cfe92919061466f565b60405180910390fd5b81925080600d60006101000a8154816bffffffffffffffffffffffff02191690836bffffffffffffffffffffffff1602179055505050919050565b60006064826064611d53919061452a565b8468056bc75e2d63100000611d689190613ebd565b611d729190613ebd565b611d7c9190613f2e565b9050807f000000000000000000000000000000000000000000000000000000000000000073ffffffffffffffffffffffffffffffffffffffff1663dd62ed3e33306040518363ffffffff1660e01b8152600401611dda929190614698565b602060405180830381865afa158015611df7573d6000803e3d6000fd5b505050506040513d601f19601f82011682018060405250810190611e1b919061407a565b1015611efb577f000000000000000000000000000000000000000000000000000000000000000073ffffffffffffffffffffffffffffffffffffffff1663dd62ed3e33306040518363ffffffff1660e01b8152600401611e7c929190614698565b602060405180830381865afa158015611e99573d6000803e3d6000fd5b505050506040513d601f19601f82011682018060405250810190611ebd919061407a565b816040517fb99e2ab7000000000000000000000000000000000000000000000000000000008152600401611ef292919061466f565b60405180910390fd5b60007f000000000000000000000000000000000000000000000000000000000000000073ffffffffffffffffffffffffffffffffffffffff166323b872dd3330856040518463ffffffff1660e01b8152600401611f5a939291906146c1565b6020604051808303816000875af1158015611f79573d6000803e3d6000fd5b505050506040513d601f19601f82011682018060405250810190611f9d91906140bc565b905080611fe4576000826040517fb99e2ab7000000000000000000000000000000000000000000000000000000008152600401611fdb9291906146f8565b60405180910390fd5b3373ffffffffffffffffffffffffffffffffffffffff167f7bd379b31566817ff79103ff210fc7d86fa755c249a8dc25f96618362789e191838560405161202c92919061466f565b60405180910390a250505050565b61205482826040518060200160405280600081525061293a565b5050565b6001600c81905550565b600061206f84848461295e565b90509392505050565b612080611b8f565b73ffffffffffffffffffffffffffffffffffffffff1661209e611147565b73ffffffffffffffffffffffffffffffffffffffff16146120fd576120c1611b8f565b6040517f118cdaa70000000000000000000000000000000000000000000000000000000081526004016120f491906138cf565b60405180910390fd5b565b61210761297c565b6000600b60006101000a81548160ff0219169083151502179055507f5db9ee0a495bf2e6ff9c91a7834c1ba4fdd244a5e8aa4e537bd38aeae4b073aa61214b611b8f565b60405161215891906138cf565b60405180910390a1565b6000600b60019054906101000a900473ffffffffffffffffffffffffffffffffffffffff16905081600b60016101000a81548173ffffffffffffffffffffffffffffffffffffffff021916908373ffffffffffffffffffffffffffffffffffffffff1602179055508173ffffffffffffffffffffffffffffffffffffffff168173ffffffffffffffffffffffffffffffffffffffff167f8be0079c531659141344cd1fd0a4f28419497f9722a3daafe3b4186f6b6457e060405160405180910390a35050565b6122306129bc565b6001600b60006101000a81548160ff0219169083151502179055507f62e78cea01bee320cd4e420270b5ea74000d11b0c9f74754ebdbfc544b05a258612274611b8f565b60405161228191906138cf565b60405180910390a1565b600073ffffffffffffffffffffffffffffffffffffffff168273ffffffffffffffffffffffffffffffffffffffff16036122fc57816040517f5b08ba180000000000000000000000000000000000000000000000000000000081526004016122f391906138cf565b60405180910390fd5b80600560008573ffffffffffffffffffffffffffffffffffffffff1673ffffffffffffffffffffffffffffffffffffffff16815260200190815260200160002060008473ffffffffffffffffffffffffffffffffffffffff1673ffffffffffffffffffffffffffffffffffffffff16815260200190815260200160002060006101000a81548160ff0219169083151502179055508173ffffffffffffffffffffffffffffffffffffffff168373ffffffffffffffffffffffffffffffffffffffff167f17307eab39ab6107e8899845ad3d59bd9653f200f220920489ca2b5937696c31836040516123ed919061375e565b60405180910390a3505050565b60008373ffffffffffffffffffffffffffffffffffffffff163b11156125a4578273ffffffffffffffffffffffffffffffffffffffff1663150b7a02868685856040518563ffffffff1660e01b81526004016124599493929190614776565b6020604051808303816000875af192505050801561249557506040513d601f19601f8201168201806040525081019061249291906147d7565b60015b612519573d80600081146124c5576040519150601f19603f3d011682016040523d82523d6000602084013e6124ca565b606091505b50600081510361251157836040517f64a0ae9200000000000000000000000000000000000000000000000000000000815260040161250891906138cf565b60405180910390fd5b805181602001fd5b63150b7a0260e01b7bffffffffffffffffffffffffffffffffffffffffffffffffffffffff1916817bffffffffffffffffffffffffffffffffffffffffffffffffffffffff1916146125a257836040517f64a0ae9200000000000000000000000000000000000000000000000000000000815260040161259991906138cf565b60405180910390fd5b505b5050505050565b60606125b682611aca565b506000600a600084815260200190815260200160002080546125d790613e5d565b80601f016020809104026020016040519081016040528092919081815260200182805461260390613e5d565b80156126505780601f1061262557610100808354040283529160200191612650565b820191906000526020600020905b81548152906001019060200180831161263357829003601f168201915b5050505050905060006126616129fd565b905060008151036126765781925050506126b9565b6000825111156126ab578082604051602001612693929190614840565b604051602081830303815290604052925050506126b9565b6126b484612a8f565b925050505b919050565b60007f780e9d63000000000000000000000000000000000000000000000000000000007bffffffffffffffffffffffffffffffffffffffffffffffffffffffff1916827bffffffffffffffffffffffffffffffffffffffffffffffffffffffff19161480612731575061273082612af8565b5b9050919050565b60006002600083815260200190815260200160002060009054906101000a900473ffffffffffffffffffffffffffffffffffffffff169050919050565b80806127ae5750600073ffffffffffffffffffffffffffffffffffffffff168273ffffffffffffffffffffffffffffffffffffffff1614155b156128e25760006127be84611aca565b9050600073ffffffffffffffffffffffffffffffffffffffff168373ffffffffffffffffffffffffffffffffffffffff161415801561282957508273ffffffffffffffffffffffffffffffffffffffff168173ffffffffffffffffffffffffffffffffffffffff1614155b801561283c575061283a81846117f7565b155b1561287e57826040517fa9fbf51f00000000000000000000000000000000000000000000000000000000815260040161287591906138cf565b60405180910390fd5b81156128e057838573ffffffffffffffffffffffffffffffffffffffff168273ffffffffffffffffffffffffffffffffffffffff167f8c5be1e5ebec7d5bd14f71427d1e84f3dd0314c0f7b2291e5b200ac8c7c3b92560405160405180910390a45b505b836004600085815260200190815260200160002060006101000a81548173ffffffffffffffffffffffffffffffffffffffff021916908373ffffffffffffffffffffffffffffffffffffffff16021790555050505050565b6129448383612bda565b61295961294f611b8f565b60008585856123fa565b505050565b60006129686129bc565b612973848484612cd3565b90509392505050565b612984611031565b6129ba576040517f8dfc202b00000000000000000000000000000000000000000000000000000000815260040160405180910390fd5b565b6129c4611031565b156129fb576040517fd93c066500000000000000000000000000000000000000000000000000000000815260040160405180910390fd5b565b6060600e8054612a0c90613e5d565b80601f0160208091040260200160405190810160405280929190818152602001828054612a3890613e5d565b8015612a855780601f10612a5a57610100808354040283529160200191612a85565b820191906000526020600020905b815481529060010190602001808311612a6857829003601f168201915b5050505050905090565b6060612a9a82611aca565b506000612aa56129fd565b90506000815111612ac55760405180602001604052806000815250612af0565b80612acf84612df0565b604051602001612ae0929190614840565b6040516020818303038152906040525b915050919050565b60007f80ac58cd000000000000000000000000000000000000000000000000000000007bffffffffffffffffffffffffffffffffffffffffffffffffffffffff1916827bffffffffffffffffffffffffffffffffffffffffffffffffffffffff19161480612bc357507f5b5e139f000000000000000000000000000000000000000000000000000000007bffffffffffffffffffffffffffffffffffffffffffffffffffffffff1916827bffffffffffffffffffffffffffffffffffffffffffffffffffffffff1916145b80612bd35750612bd282612ebe565b5b9050919050565b600073ffffffffffffffffffffffffffffffffffffffff168273ffffffffffffffffffffffffffffffffffffffff1603612c4c5760006040517f64a0ae92000000000000000000000000000000000000000000000000000000008152600401612c4391906138cf565b60405180910390fd5b6000612c5a83836000612062565b9050600073ffffffffffffffffffffffffffffffffffffffff168173ffffffffffffffffffffffffffffffffffffffff1614612cce5760006040517f73c6ac6e000000000000000000000000000000000000000000000000000000008152600401612cc591906138cf565b60405180910390fd5b505050565b600080612ce1858585612f28565b9050600073ffffffffffffffffffffffffffffffffffffffff168173ffffffffffffffffffffffffffffffffffffffff1603612d2557612d2084613142565b612d64565b8473ffffffffffffffffffffffffffffffffffffffff168173ffffffffffffffffffffffffffffffffffffffff1614612d6357612d62818561318b565b5b5b600073ffffffffffffffffffffffffffffffffffffffff168573ffffffffffffffffffffffffffffffffffffffff1603612da657612da184613276565b612de5565b8473ffffffffffffffffffffffffffffffffffffffff168173ffffffffffffffffffffffffffffffffffffffff1614612de457612de38585613347565b5b5b809150509392505050565b606060006001612dff846133d2565b01905060008167ffffffffffffffff811115612e1e57612e1d613b23565b5b6040519080825280601f01601f191660200182016040528015612e505781602001600182028036833780820191505090505b509050600082602001820190505b600115612eb3578080600190039150507f3031323334353637383961626364656600000000000000000000000000000000600a86061a8153600a8581612ea757612ea6613eff565b5b04945060008503612e5e575b819350505050919050565b60007f01ffc9a7000000000000000000000000000000000000000000000000000000007bffffffffffffffffffffffffffffffffffffffffffffffffffffffff1916827bffffffffffffffffffffffffffffffffffffffffffffffffffffffff1916149050919050565b600080612f3484612738565b9050600073ffffffffffffffffffffffffffffffffffffffff168373ffffffffffffffffffffffffffffffffffffffff1614612f7657612f75818486613525565b5b600073ffffffffffffffffffffffffffffffffffffffff168173ffffffffffffffffffffffffffffffffffffffff161461300757612fb8600085600080612775565b6001600360008373ffffffffffffffffffffffffffffffffffffffff1673ffffffffffffffffffffffffffffffffffffffff168152602001908152602001600020600082825403925050819055505b600073ffffffffffffffffffffffffffffffffffffffff168573ffffffffffffffffffffffffffffffffffffffff161461308a576001600360008773ffffffffffffffffffffffffffffffffffffffff1673ffffffffffffffffffffffffffffffffffffffff168152602001908152602001600020600082825401925050819055505b846002600086815260200190815260200160002060006101000a81548173ffffffffffffffffffffffffffffffffffffffff021916908373ffffffffffffffffffffffffffffffffffffffff160217905550838573ffffffffffffffffffffffffffffffffffffffff168273ffffffffffffffffffffffffffffffffffffffff167fddf252ad1be2c89b69c2b068fc378daa952ba7f163c4a11628f55a4df523b3ef60405160405180910390a4809150509392505050565b6008805490506009600083815260200190815260200160002081905550600881908060018154018082558091505060019003906000526020600020016000909190919091505550565b600061319683611067565b90506000600760008481526020019081526020016000205490506000600660008673ffffffffffffffffffffffffffffffffffffffff1673ffffffffffffffffffffffffffffffffffffffff16815260200190815260200160002090508282146132425760008160008581526020019081526020016000205490508082600085815260200190815260200160002081905550826007600083815260200190815260200160002081905550505b6007600085815260200190815260200160002060009055806000848152602001908152602001600020600090555050505050565b6000600160088054905061328a919061452a565b90506000600960008481526020019081526020016000205490506000600883815481106132ba576132b961415b565b5b9060005260206000200154905080600883815481106132dc576132db61415b565b5b90600052602060002001819055508160096000838152602001908152602001600020819055506009600085815260200190815260200160002060009055600880548061332b5761332a614864565b5b6001900381819060005260206000200160009055905550505050565b6000600161335484611067565b61335e919061452a565b905081600660008573ffffffffffffffffffffffffffffffffffffffff1673ffffffffffffffffffffffffffffffffffffffff168152602001908152602001600020600083815260200190815260200160002081905550806007600084815260200190815260200160002081905550505050565b600080600090507a184f03e93ff9f4daa797ed6e38ed64bf6a1f0100000000000000008310613430577a184f03e93ff9f4daa797ed6e38ed64bf6a1f010000000000000000838161342657613425613eff565b5b0492506040810190505b6d04ee2d6d415b85acef8100000000831061346d576d04ee2d6d415b85acef8100000000838161346357613462613eff565b5b0492506020810190505b662386f26fc10000831061349c57662386f26fc10000838161349257613491613eff565b5b0492506010810190505b6305f5e10083106134c5576305f5e10083816134bb576134ba613eff565b5b0492506008810190505b61271083106134ea5761271083816134e0576134df613eff565b5b0492506004810190505b6064831061350d576064838161350357613502613eff565b5b0492506002810190505b600a831061351c576001810190505b80915050919050565b6135308383836135e9565b6135e457600073ffffffffffffffffffffffffffffffffffffffff168373ffffffffffffffffffffffffffffffffffffffff16036135a557806040517f7e27328900000000000000000000000000000000000000000000000000000000815260040161359c9190613965565b60405180910390fd5b81816040517f177e802f0000000000000000000000000000000000000000000000000000000081526004016135db929190614008565b60405180910390fd5b505050565b60008073ffffffffffffffffffffffffffffffffffffffff168373ffffffffffffffffffffffffffffffffffffffff16141580156136a157508273ffffffffffffffffffffffffffffffffffffffff168473ffffffffffffffffffffffffffffffffffffffff161480613662575061366184846117f7565b5b806136a057508273ffffffffffffffffffffffffffffffffffffffff1661368883611b52565b73ffffffffffffffffffffffffffffffffffffffff16145b5b90509392505050565b6000604051905090565b600080fd5b600080fd5b60007fffffffff0000000000000000000000000000000000000000000000000000000082169050919050565b6136f3816136be565b81146136fe57600080fd5b50565b600081359050613710816136ea565b92915050565b60006020828403121561372c5761372b6136b4565b5b600061373a84828501613701565b91505092915050565b60008115159050919050565b61375881613743565b82525050565b6000602082019050613773600083018461374f565b92915050565b600081519050919050565b600082825260208201905092915050565b60005b838110156137b3578082015181840152602081019050613798565b60008484015250505050565b6000601f19601f8301169050919050565b60006137db82613779565b6137e58185613784565b93506137f5818560208601613795565b6137fe816137bf565b840191505092915050565b6000602082019050818103600083015261382381846137d0565b905092915050565b6000819050919050565b61383e8161382b565b811461384957600080fd5b50565b60008135905061385b81613835565b92915050565b600060208284031215613877576138766136b4565b5b60006138858482850161384c565b91505092915050565b600073ffffffffffffffffffffffffffffffffffffffff82169050919050565b60006138b98261388e565b9050919050565b6138c9816138ae565b82525050565b60006020820190506138e460008301846138c0565b92915050565b6138f3816138ae565b81146138fe57600080fd5b50565b600081359050613910816138ea565b92915050565b6000806040838503121561392d5761392c6136b4565b5b600061393b85828601613901565b925050602061394c8582860161384c565b9150509250929050565b61395f8161382b565b82525050565b600060208201905061397a6000830184613956565b92915050565b600060208284031215613996576139956136b4565b5b60006139a484828501613901565b91505092915050565b6000806000606084860312156139c6576139c56136b4565b5b60006139d486828701613901565b93505060206139e586828701613901565b92505060406139f68682870161384c565b9150509250925092565b600080fd5b600080fd5b600080fd5b60008083601f840112613a2557613a24613a00565b5b8235905067ffffffffffffffff811115613a4257613a41613a05565b5b602083019150836001820283011115613a5e57613a5d613a0a565b5b9250929050565b60008060208385031215613a7c57613a7b6136b4565b5b600083013567ffffffffffffffff811115613a9a57613a996136b9565b5b613aa685828601613a0f565b92509250509250929050565b613abb81613743565b8114613ac657600080fd5b50565b600081359050613ad881613ab2565b92915050565b60008060408385031215613af557613af46136b4565b5b6000613b0385828601613901565b9250506020613b1485828601613ac9565b9150509250929050565b600080fd5b7f4e487b7100000000000000000000000000000000000000000000000000000000600052604160045260246000fd5b613b5b826137bf565b810181811067ffffffffffffffff82111715613b7a57613b79613b23565b5b80604052505050565b6000613b8d6136aa565b9050613b998282613b52565b919050565b600067ffffffffffffffff821115613bb957613bb8613b23565b5b613bc2826137bf565b9050602081019050919050565b82818337600083830152505050565b6000613bf1613bec84613b9e565b613b83565b905082815260208101848484011115613c0d57613c0c613b1e565b5b613c18848285613bcf565b509392505050565b600082601f830112613c3557613c34613a00565b5b8135613c45848260208601613bde565b91505092915050565b60008060008060808587031215613c6857613c676136b4565b5b6000613c7687828801613901565b9450506020613c8787828801613901565b9350506040613c988782880161384c565b925050606085013567ffffffffffffffff811115613cb957613cb86136b9565b5b613cc587828801613c20565b91505092959194509250565b6000819050919050565b6000613cf6613cf1613cec8461388e565b613cd1565b61388e565b9050919050565b6000613d0882613cdb565b9050919050565b6000613d1a82613cfd565b9050919050565b613d2a81613d0f565b82525050565b6000602082019050613d456000830184613d21565b92915050565b60008083601f840112613d6157613d60613a00565b5b8235905067ffffffffffffffff811115613d7e57613d7d613a05565b5b602083019150836020820283011115613d9a57613d99613a0a565b5b9250929050565b60008060208385031215613db857613db76136b4565b5b600083013567ffffffffffffffff811115613dd657613dd56136b9565b5b613de285828601613d4b565b92509250509250929050565b60008060408385031215613e0557613e046136b4565b5b6000613e1385828601613901565b9250506020613e2485828601613901565b9150509250929050565b7f4e487b7100000000000000000000000000000000000000000000000000000000600052602260045260246000fd5b60006002820490506001821680613e7557607f821691505b602082108103613e8857613e87613e2e565b5b50919050565b7f4e487b7100000000000000000000000000000000000000000000000000000000600052601160045260246000fd5b6000613ec88261382b565b9150613ed38361382b565b9250828202613ee18161382b565b91508282048414831517613ef857613ef7613e8e565b5b5092915050565b7f4e487b7100000000000000000000000000000000000000000000000000000000600052601260045260246000fd5b6000613f398261382b565b9150613f448361382b565b925082613f5457613f53613eff565b5b828204905092915050565b6000819050919050565b6000613f84613f7f613f7a84613f5f565b613cd1565b61382b565b9050919050565b613f9481613f69565b82525050565b6000606082019050613faf6000830186613956565b613fbc6020830185613f8b565b613fc96040830184613956565b949350505050565b6000606082019050613fe660008301866138c0565b613ff36020830185613956565b61400060408301846138c0565b949350505050565b600060408201905061401d60008301856138c0565b61402a6020830184613956565b9392505050565b600061403c8261382b565b91506140478361382b565b925082820190508082111561405f5761405e613e8e565b5b92915050565b60008151905061407481613835565b92915050565b6000602082840312156140905761408f6136b4565b5b600061409e84828501614065565b91505092915050565b6000815190506140b681613ab2565b92915050565b6000602082840312156140d2576140d16136b4565b5b60006140e0848285016140a7565b91505092915050565b6000819050919050565b600061410e614109614104846140e9565b613cd1565b61382b565b9050919050565b61411e816140f3565b82525050565b60006060820190506141396000830186613956565b6141466020830185614115565b6141536040830184613956565b949350505050565b7f4e487b7100000000000000000000000000000000000000000000000000000000600052603260045260246000fd5b600082905092915050565b60008190508160005260206000209050919050565b60006020601f8301049050919050565b600082821b905092915050565b6000600883026141f77fffffffffffffffffffffffffffffffffffffffffffffffffffffffffffffffff826141ba565b61420186836141ba565b95508019841693508086168417925050509392505050565b600061423461422f61422a8461382b565b613cd1565b61382b565b9050919050565b6000819050919050565b61424e83614219565b61426261425a8261423b565b8484546141c7565b825550505050565b600090565b61427761426a565b614282818484614245565b505050565b5b818110156142a65761429b60008261426f565b600181019050614288565b5050565b601f8211156142eb576142bc81614195565b6142c5846141aa565b810160208510156142d4578190505b6142e86142e0856141aa565b830182614287565b50505b505050565b600082821c905092915050565b600061430e600019846008026142f0565b1980831691505092915050565b600061432783836142fd565b9150826002028217905092915050565b614341838361418a565b67ffffffffffffffff81111561435a57614359613b23565b5b6143648254613e5d565b61436f8282856142aa565b6000601f83116001811461439e576000841561438c578287013590505b614396858261431b565b8655506143fe565b601f1984166143ac86614195565b60005b828110156143d4578489013582556001820191506020850194506020810190506143af565b868310156143f157848901356143ed601f8916826142fd565b8355505b6001600288020188555050505b50505050505050565b60006144138385613784565b9350614420838584613bcf565b614429836137bf565b840190509392505050565b6000602082019050818103600083015261444f818486614407565b90509392505050565b6000819050919050565b600061447d61447861447384614458565b613cd1565b61382b565b9050919050565b61448d81614462565b82525050565b60006060820190506144a86000830186613956565b6144b56020830185613956565b6144c26040830184614484565b949350505050565b60006040820190506144df6000830185613956565b6144ec6020830184613f8b565b9392505050565b60006060820190506145086000830186613956565b6145156020830185613956565b6145226040830184613956565b949350505050565b60006145358261382b565b91506145408361382b565b925082820390508181111561455857614557613e8e565b5b92915050565b600082825260208201905092915050565b600080fd5b82818337505050565b6000614589838561455e565b93507f07ffffffffffffffffffffffffffffffffffffffffffffffffffffffffffffff8311156145bc576145bb61456f565b5b6020830292506145cd838584614574565b82840190509392505050565b600060208201905081810360008301526145f481848661457d565b90509392505050565b6000819050919050565b600061462261461d614618846145fd565b613cd1565b61382b565b9050919050565b61463281614607565b82525050565b600060608201905061464d6000830186613956565b61465a6020830185614629565b6146676040830184613956565b949350505050565b60006040820190506146846000830185613956565b6146916020830184613956565b9392505050565b60006040820190506146ad60008301856138c0565b6146ba60208301846138c0565b9392505050565b60006060820190506146d660008301866138c0565b6146e360208301856138c0565b6146f06040830184613956565b949350505050565b600060408201905061470d6000830185614484565b61471a6020830184613956565b9392505050565b600081519050919050565b600082825260208201905092915050565b600061474882614721565b614752818561472c565b9350614762818560208601613795565b61476b816137bf565b840191505092915050565b600060808201905061478b60008301876138c0565b61479860208301866138c0565b6147a56040830185613956565b81810360608301526147b7818461473d565b905095945050505050565b6000815190506147d1816136ea565b92915050565b6000602082840312156147ed576147ec6136b4565b5b60006147fb848285016147c2565b91505092915050565b600081905092915050565b600061481a82613779565b6148248185614804565b9350614834818560208601613795565b80840191505092915050565b600061484c828561480f565b9150614858828461480f565b91508190509392505050565b7f4e487b7100000000000000000000000000000000000000000000000000000000600052603160045260246000fdfea2646970667358221220f561988d3c5e85ce39c8b4c0f7b847b74fb219aa867ca097c20f965a36fdb6ae64736f6c634300081c003368747470733a2f2f6465762e6d796475636b6c792e636f6d2f6170692f6e66742f6475636b6c792f",
  "linkReferences": {},
  "deployedLinkReferences": {}
}