{
  "_format": "hh-sol-artifact-1",
  "contractName": "MYDLY",
  "sourceName": "contracts/MYDLY.sol",
  "abi": [
    {
      "inputs": [
        {
          "internalType": "address",
          "name": "initialOwner",
          "type": "address"
        }
      ],
      "stateMutability": "nonpayable",
      "type": "constructor"
    },
    {
      "inputs": [],
      "name": "ECDSAInvalidSignature",
      "type": "error"
    },
    {
      "inputs": [
        {
          "internalType": "uint256",
          "name": "length",
          "type": "uint256"
        }
      ],
      "name": "ECDSAInvalidSignatureLength",
      "type": "error"
    },
    {
      "inputs": [
        {
          "internalType": "bytes32",
          "name": "s",
          "type": "bytes32"
        }
      ],
      "name": "ECDSAInvalidSignatureS",
      "type": "error"
    },
    {
      "inputs": [
        {
          "internalType": "address",
          "name": "spender",
          "type": "address"
        },
        {
          "internalType": "uint256",
          "name": "allowance",
          "type": "uint256"
        },
        {
          "internalType": "uint256",
          "name": "needed",
          "type": "uint256"
        }
      ],
      "name": "ERC20InsufficientAllowance",
      "type": "error"
    },
    {
      "inputs": [
        {
          "internalType": "address",
          "name": "sender",
          "type": "address"
        },
        {
          "internalType": "uint256",
          "name": "balance",
          "type": "uint256"
        },
        {
          "internalType": "uint256",
          "name": "needed",
          "type": "uint256"
        }
      ],
      "name": "ERC20InsufficientBalance",
      "type": "error"
    },
    {
      "inputs": [
        {
          "internalType": "address",
          "name": "approver",
          "type": "address"
        }
      ],
      "name": "ERC20InvalidApprover",
      "type": "error"
    },
    {
      "inputs": [
        {
          "internalType": "address",
          "name": "receiver",
          "type": "address"
        }
      ],
      "name": "ERC20InvalidReceiver",
      "type": "error"
    },
    {
      "inputs": [
        {
          "internalType": "address",
          "name": "sender",
          "type": "address"
        }
      ],
      "name": "ERC20InvalidSender",
      "type": "error"
    },
    {
      "inputs": [
        {
          "internalType": "address",
          "name": "spender",
          "type": "address"
        }
      ],
      "name": "ERC20InvalidSpender",
      "type": "error"
    },
    {
      "inputs": [
        {
          "internalType": "uint256",
          "name": "deadline",
          "type": "uint256"
        }
      ],
      "name": "ERC2612ExpiredSignature",
      "type": "error"
    },
    {
      "inputs": [
        {
          "internalType": "address",
          "name": "signer",
          "type": "address"
        },
        {
          "internalType": "address",
          "name": "owner",
          "type": "address"
        }
      ],
      "name": "ERC2612InvalidSigner",
      "type": "error"
    },
    {
      "inputs": [],
      "name": "EnforcedPause",
      "type": "error"
    },
    {
      "inputs": [],
      "name": "ExpectedPause",
      "type": "error"
    },
    {
      "inputs": [
        {
          "internalType": "address",
          "name": "account",
          "type": "address"
        },
        {
          "internalType": "uint256",
          "name": "currentNonce",
          "type": "uint256"
        }
      ],
      "name": "InvalidAccountNonce",
      "type": "error"
    },
    {
      "inputs": [],
      "name": "InvalidShortString",
      "type": "error"
    },
    {
      "inputs": [
        {
          "internalType": "address",
          "name": "owner",
          "type": "address"
        }
      ],
      "name": "OwnableInvalidOwner",
      "type": "error"
    },
    {
      "inputs": [
        {
          "internalType": "address",
          "name": "account",
          "type": "address"
        }
      ],
      "name": "OwnableUnauthorizedAccount",
      "type": "error"
    },
    {
      "inputs": [
        {
          "internalType": "string",
          "name": "str",
          "type": "string"
        }
      ],
      "name": "StringTooLong",
      "type": "error"
    },
    {
      "anonymous": false,
      "inputs": [
        {
          "indexed": true,
          "internalType": "address",
          "name": "owner",
          "type": "address"
        },
        {
          "indexed": true,
          "internalType": "address",
          "name": "spender",
          "type": "address"
        },
        {
          "indexed": false,
          "internalType": "uint256",
          "name": "value",
          "type": "uint256"
        }
      ],
      "name": "Approval",
      "type": "event"
    },
    {
      "anonymous": false,
      "inputs": [],
      "name": "EIP712DomainChanged",
      "type": "event"
    },
    {
      "anonymous": false,
      "inputs": [
        {
          "indexed": true,
          "internalType": "address",
          "name": "previousOwner",
          "type": "address"
        },
        {
          "indexed": true,
          "internalType": "address",
          "name": "newOwner",
          "type": "address"
        }
      ],
      "name": "OwnershipTransferred",
      "type": "event"
    },
    {
      "anonymous": false,
      "inputs": [
        {
          "indexed": false,
          "internalType": "address",
          "name": "account",
          "type": "address"
        }
      ],
      "name": "Paused",
      "type": "event"
    },
    {
      "anonymous": false,
      "inputs": [
        {
          "indexed": true,
          "internalType": "address",
          "name": "from",
          "type": "address"
        },
        {
          "indexed": true,
          "internalType": "address",
          "name": "to",
          "type": "address"
        },
        {
          "indexed": false,
          "internalType": "uint256",
          "name": "value",
          "type": "uint256"
        }
      ],
      "name": "Transfer",
      "type": "event"
    },
    {
      "anonymous": false,
      "inputs": [
        {
          "indexed": false,
          "internalType": "address",
          "name": "account",
          "type": "address"
        }
      ],
      "name": "Unpaused",
      "type": "event"
    },
    {
      "inputs": [],
      "name": "DOMAIN_SEPARATOR",
      "outputs": [
        {
          "internalType": "bytes32",
          "name": "",
          "type": "bytes32"
        }
      ],
      "stateMutability": "view",
      "type": "function"
    },
    {
      "inputs": [],
      "name": "TOTAL_SUPPLY",
      "outputs": [
        {
          "internalType": "uint256",
          "name": "",
          "type": "uint256"
        }
      ],
      "stateMutability": "view",
      "type": "function"
    },
    {
      "inputs": [
        {
          "internalType": "address",
          "name": "owner",
          "type": "address"
        },
        {
          "internalType": "address",
          "name": "spender",
          "type": "address"
        }
      ],
      "name": "allowance",
      "outputs": [
        {
          "internalType": "uint256",
          "name": "",
          "type": "uint256"
        }
      ],
      "stateMutability": "view",
      "type": "function"
    },
    {
      "inputs": [
        {
          "internalType": "address",
          "name": "spender",
          "type": "address"
        },
        {
          "internalType": "uint256",
          "name": "value",
          "type": "uint256"
        }
      ],
      "name": "approve",
      "outputs": [
        {
          "internalType": "bool",
          "name": "",
          "type": "bool"
        }
      ],
      "stateMutability": "nonpayable",
      "type": "function"
    },
    {
      "inputs": [
        {
          "internalType": "address",
          "name": "account",
          "type": "address"
        }
      ],
      "name": "balanceOf",
      "outputs": [
        {
          "internalType": "uint256",
          "name": "",
          "type": "uint256"
        }
      ],
      "stateMutability": "view",
      "type": "function"
    },
    {
      "inputs": [
        {
          "internalType": "uint256",
          "name": "value",
          "type": "uint256"
        }
      ],
      "name": "burn",
      "outputs": [],
      "stateMutability": "nonpayable",
      "type": "function"
    },
    {
      "inputs": [
        {
          "internalType": "address",
          "name": "account",
          "type": "address"
        },
        {
          "internalType": "uint256",
          "name": "value",
          "type": "uint256"
        }
      ],
      "name": "burnFrom",
      "outputs": [],
      "stateMutability": "nonpayable",
      "type": "function"
    },
    {
      "inputs": [],
      "name": "decimals",
      "outputs": [
        {
          "internalType": "uint8",
          "name": "",
          "type": "uint8"
        }
      ],
      "stateMutability": "view",
      "type": "function"
    },
    {
      "inputs": [],
      "name": "eip712Domain",
      "outputs": [
        {
          "internalType": "bytes1",
          "name": "fields",
          "type": "bytes1"
        },
        {
          "internalType": "string",
          "name": "name",
          "type": "string"
        },
        {
          "internalType": "string",
          "name": "version",
          "type": "string"
        },
        {
          "internalType": "uint256",
          "name": "chainId",
          "type": "uint256"
        },
        {
          "internalType": "address",
          "name": "verifyingContract",
          "type": "address"
        },
        {
          "internalType": "bytes32",
          "name": "salt",
          "type": "bytes32"
        },
        {
          "internalType": "uint256[]",
          "name": "extensions",
          "type": "uint256[]"
        }
      ],
      "stateMutability": "view",
      "type": "function"
    },
    {
      "inputs": [],
      "name": "name",
      "outputs": [
        {
          "internalType": "string",
          "name": "",
          "type": "string"
        }
      ],
      "stateMutability": "view",
      "type": "function"
    },
    {
      "inputs": [
        {
          "internalType": "address",
          "name": "owner",
          "type": "address"
        }
      ],
      "name": "nonces",
      "outputs": [
        {
          "internalType": "uint256",
          "name": "",
          "type": "uint256"
        }
      ],
      "stateMutability": "view",
      "type": "function"
    },
    {
      "inputs": [],
      "name": "owner",
      "outputs": [
        {
          "internalType": "address",
          "name": "",
          "type": "address"
        }
      ],
      "stateMutability": "view",
      "type": "function"
    },
    {
      "inputs": [],
      "name": "pause",
      "outputs": [],
      "stateMutability": "nonpayable",
      "type": "function"
    },
    {
      "inputs": [],
      "name": "paused",
      "outputs": [
        {
          "internalType": "bool",
          "name": "",
          "type": "bool"
        }
      ],
      "stateMutability": "view",
      "type": "function"
    },
    {
      "inputs": [
        {
          "internalType": "address",
          "name": "owner",
          "type": "address"
        },
        {
          "internalType": "address",
          "name": "spender",
          "type": "address"
        },
        {
          "internalType": "uint256",
          "name": "value",
          "type": "uint256"
        },
        {
          "internalType": "uint256",
          "name": "deadline",
          "type": "uint256"
        },
        {
          "internalType": "uint8",
          "name": "v",
          "type": "uint8"
        },
        {
          "internalType": "bytes32",
          "name": "r",
          "type": "bytes32"
        },
        {
          "internalType": "bytes32",
          "name": "s",
          "type": "bytes32"
        }
      ],
      "name": "permit",
      "outputs": [],
      "stateMutability": "nonpayable",
      "type": "function"
    },
    {
      "inputs": [],
      "name": "renounceOwnership",
      "outputs": [],
      "stateMutability": "nonpayable",
      "type": "function"
    },
    {
      "inputs": [],
      "name": "symbol",
      "outputs": [
        {
          "internalType": "string",
          "name": "",
          "type": "string"
        }
      ],
      "stateMutability": "view",
      "type": "function"
    },
    {
      "inputs": [],
      "name": "totalSupply",
      "outputs": [
        {
          "internalType": "uint256",
          "name": "",
          "type": "uint256"
        }
      ],
      "stateMutability": "view",
      "type": "function"
    },
    {
      "inputs": [
        {
          "internalType": "address",
          "name": "to",
          "type": "address"
        },
        {
          "internalType": "uint256",
          "name": "value",
          "type": "uint256"
        }
      ],
      "name": "transfer",
      "outputs": [
        {
          "internalType": "bool",
          "name": "",
          "type": "bool"
        }
      ],
      "stateMutability": "nonpayable",
      "type": "function"
    },
    {
      "inputs": [
        {
          "internalType": "address",
          "name": "from",
          "type": "address"
        },
        {
          "internalType": "address",
          "name": "to",
          "type": "address"
        },
        {
          "internalType": "uint256",
          "name": "value",
          "type": "uint256"
        }
      ],
      "name": "transferFrom",
      "outputs": [
        {
          "internalType": "bool",
          "name": "",
          "type": "bool"
        }
      ],
      "stateMutability": "nonpayable",
      "type": "function"
    },
    {
      "inputs": [
        {
          "internalType": "address",
          "name": "newOwner",
          "type": "address"
        }
      ],
      "name": "transferOwnership",
      "outputs": [],
      "stateMutability": "nonpayable",
      "type": "function"
    },
    {
      "inputs": [],
      "name": "unpause",
      "outputs": [],
      "stateMutability": "nonpayable",
      "type": "function"
    }
  ],
  "bytecode": "0x6101806040526100136102bf60201b60201c565b600a61001f9190610969565b6298968061002d91906109b4565b6101609081525034801561004057600080fd5b5060405161328438038061328483398181016040528101906100629190610a59565b806040518060400160405280600581526020017f4d59444c59000000000000000000000000000000000000000000000000000000815250806040518060400160405280600181526020017f31000000000000000000000000000000000000000000000000000000000000008152506040518060400160405280600581526020017f4d59444c590000000000000000000000000000000000000000000000000000008152506040518060400160405280600581526020017f4d59444c59000000000000000000000000000000000000000000000000000000815250816003908161014b9190610ccc565b50806004908161015b9190610ccc565b5050506101726005836102c860201b90919060201c565b610120818152505061018e6006826102c860201b90919060201c565b6101408181525050818051906020012060e08181525050808051906020012061010081815250504660a081815250506101cb61031860201b60201c565b608081815250503073ffffffffffffffffffffffffffffffffffffffff1660c08173ffffffffffffffffffffffffffffffffffffffff16815250505050506000600860006101000a81548160ff021916908315150217905550600073ffffffffffffffffffffffffffffffffffffffff168173ffffffffffffffffffffffffffffffffffffffff16036102965760006040517f1e4fbdf700000000000000000000000000000000000000000000000000000000815260040161028d9190610dad565b60405180910390fd5b6102a58161037360201b60201c565b506102b9336101605161043960201b60201c565b50611007565b60006012905090565b60006020835110156102ea576102e3836104c160201b60201c565b9050610312565b826102fa8361052960201b60201c565b60000190816103099190610ccc565b5060ff60001b90505b92915050565b60007f8b73c3c69bb8fe3d512ecc4cf759cc79239f7b179b0ffacaa9a75d522b39400f60e051610100514630604051602001610358959493929190610df0565b60405160208183030381529060405280519060200120905090565b6000600860019054906101000a900473ffffffffffffffffffffffffffffffffffffffff16905081600860016101000a81548173ffffffffffffffffffffffffffffffffffffffff021916908373ffffffffffffffffffffffffffffffffffffffff1602179055508173ffffffffffffffffffffffffffffffffffffffff168173ffffffffffffffffffffffffffffffffffffffff167f8be0079c531659141344cd1fd0a4f28419497f9722a3daafe3b4186f6b6457e060405160405180910390a35050565b600073ffffffffffffffffffffffffffffffffffffffff168273ffffffffffffffffffffffffffffffffffffffff16036104ab5760006040517fec442f050000000000000000000000000000000000000000000000000000000081526004016104a29190610dad565b60405180910390fd5b6104bd6000838361053360201b60201c565b5050565b600080829050601f8151111561050e57826040517f305a27a90000000000000000000000000000000000000000000000000000000081526004016105059190610ec8565b60405180910390fd5b80518161051a90610f1a565b60001c1760001b915050919050565b6000819050919050565b61054483838361054960201b60201c565b505050565b61055761056d60201b60201c565b6105688383836105b460201b60201c565b505050565b61057b6107d960201b60201c565b156105b2576040517fd93c066500000000000000000000000000000000000000000000000000000000815260040160405180910390fd5b565b600073ffffffffffffffffffffffffffffffffffffffff168373ffffffffffffffffffffffffffffffffffffffff16036106065780600260008282546105fa9190610f81565b925050819055506106d9565b60008060008573ffffffffffffffffffffffffffffffffffffffff1673ffffffffffffffffffffffffffffffffffffffff16815260200190815260200160002054905081811015610692578381836040517fe450d38c00000000000000000000000000000000000000000000000000000000815260040161068993929190610fb5565b60405180910390fd5b8181036000808673ffffffffffffffffffffffffffffffffffffffff1673ffffffffffffffffffffffffffffffffffffffff16815260200190815260200160002081905550505b600073ffffffffffffffffffffffffffffffffffffffff168273ffffffffffffffffffffffffffffffffffffffff1603610722578060026000828254039250508190555061076f565b806000808473ffffffffffffffffffffffffffffffffffffffff1673ffffffffffffffffffffffffffffffffffffffff168152602001908152602001600020600082825401925050819055505b8173ffffffffffffffffffffffffffffffffffffffff168373ffffffffffffffffffffffffffffffffffffffff167fddf252ad1be2c89b69c2b068fc378daa952ba7f163c4a11628f55a4df523b3ef836040516107cc9190610fec565b60405180910390a3505050565b6000600860009054906101000a900460ff16905090565b7f4e487b7100000000000000000000000000000000000000000000000000000000600052601160045260246000fd5b60008160011c9050919050565b6000808291508390505b600185111561087657808604811115610852576108516107f0565b5b60018516156108615780820291505b808102905061086f8561081f565b9450610836565b94509492505050565b60008261088f576001905061094b565b8161089d576000905061094b565b81600181146108b357600281146108bd576108ec565b600191505061094b565b60ff8411156108cf576108ce6107f0565b5b8360020a9150848211156108e6576108e56107f0565b5b5061094b565b5060208310610133831016604e8410600b84101617156109215782820a90508381111561091c5761091b6107f0565b5b61094b565b61092e848484600161082c565b92509050818404811115610945576109446107f0565b5b81810290505b9392505050565b6000819050919050565b600060ff82169050919050565b600061097482610952565b915061097f8361095c565b92506109ac7fffffffffffffffffffffffffffffffffffffffffffffffffffffffffffffffff848461087f565b905092915050565b60006109bf82610952565b91506109ca83610952565b92508282026109d881610952565b915082820484148315176109ef576109ee6107f0565b5b5092915050565b600080fd5b600073ffffffffffffffffffffffffffffffffffffffff82169050919050565b6000610a26826109fb565b9050919050565b610a3681610a1b565b8114610a4157600080fd5b50565b600081519050610a5381610a2d565b92915050565b600060208284031215610a6f57610a6e6109f6565b5b6000610a7d84828501610a44565b91505092915050565b600081519050919050565b7f4e487b7100000000000000000000000000000000000000000000000000000000600052604160045260246000fd5b7f4e487b7100000000000000000000000000000000000000000000000000000000600052602260045260246000fd5b60006002820490506001821680610b0757607f821691505b602082108103610b1a57610b19610ac0565b5b50919050565b60008190508160005260206000209050919050565b60006020601f8301049050919050565b600082821b905092915050565b600060088302610b827fffffffffffffffffffffffffffffffffffffffffffffffffffffffffffffffff82610b45565b610b8c8683610b45565b95508019841693508086168417925050509392505050565b6000819050919050565b6000610bc9610bc4610bbf84610952565b610ba4565b610952565b9050919050565b6000819050919050565b610be383610bae565b610bf7610bef82610bd0565b848454610b52565b825550505050565b600090565b610c0c610bff565b610c17818484610bda565b505050565b5b81811015610c3b57610c30600082610c04565b600181019050610c1d565b5050565b601f821115610c8057610c5181610b20565b610c5a84610b35565b81016020851015610c69578190505b610c7d610c7585610b35565b830182610c1c565b50505b505050565b600082821c905092915050565b6000610ca360001984600802610c85565b1980831691505092915050565b6000610cbc8383610c92565b9150826002028217905092915050565b610cd582610a86565b67ffffffffffffffff811115610cee57610ced610a91565b5b610cf88254610aef565b610d03828285610c3f565b600060209050601f831160018114610d365760008415610d24578287015190505b610d2e8582610cb0565b865550610d96565b601f198416610d4486610b20565b60005b82811015610d6c57848901518255600182019150602085019450602081019050610d47565b86831015610d895784890151610d85601f891682610c92565b8355505b6001600288020188555050505b505050505050565b610da781610a1b565b82525050565b6000602082019050610dc26000830184610d9e565b92915050565b6000819050919050565b610ddb81610dc8565b82525050565b610dea81610952565b82525050565b600060a082019050610e056000830188610dd2565b610e126020830187610dd2565b610e1f6040830186610dd2565b610e2c6060830185610de1565b610e396080830184610d9e565b9695505050505050565b600082825260208201905092915050565b60005b83811015610e72578082015181840152602081019050610e57565b60008484015250505050565b6000601f19601f8301169050919050565b6000610e9a82610a86565b610ea48185610e43565b9350610eb4818560208601610e54565b610ebd81610e7e565b840191505092915050565b60006020820190508181036000830152610ee28184610e8f565b905092915050565b600081519050919050565b6000819050602082019050919050565b6000610f118251610dc8565b80915050919050565b6000610f2582610eea565b82610f2f84610ef5565b9050610f3a81610f05565b92506020821015610f7a57610f757fffffffffffffffffffffffffffffffffffffffffffffffffffffffffffffffff83602003600802610b45565b831692505b5050919050565b6000610f8c82610952565b9150610f9783610952565b9250828201905080821115610faf57610fae6107f0565b5b92915050565b6000606082019050610fca6000830186610d9e565b610fd76020830185610de1565b610fe46040830184610de1565b949350505050565b60006020820190506110016000830184610de1565b92915050565b60805160a05160c05160e0516101005161012051610140516101605161221861106c60003960006106c201526000610f6901526000610f2e015260006112690152600061124801526000610b9401526000610bea01526000610c1301526122186000f3fe608060405234801561001057600080fd5b50600436106101425760003560e01c806379cc6790116100b8578063902d55a51161007c578063902d55a51461033557806395d89b4114610353578063a9059cbb14610371578063d505accf146103a1578063dd62ed3e146103bd578063f2fde38b146103ed57610142565b806379cc67901461029d5780637ecebe00146102b95780638456cb59146102e957806384b0196e146102f35780638da5cb5b1461031757610142565b80633644e5151161010a5780633644e515146102015780633f4ba83a1461021f57806342966c68146102295780635c975abb1461024557806370a0823114610263578063715018a61461029357610142565b806306fdde0314610147578063095ea7b31461016557806318160ddd1461019557806323b872dd146101b3578063313ce567146101e3575b600080fd5b61014f610409565b60405161015c9190611a14565b60405180910390f35b61017f600480360381019061017a9190611acf565b61049b565b60405161018c9190611b2a565b60405180910390f35b61019d6104be565b6040516101aa9190611b54565b60405180910390f35b6101cd60048036038101906101c89190611b6f565b6104c8565b6040516101da9190611b2a565b60405180910390f35b6101eb6104f7565b6040516101f89190611bde565b60405180910390f35b610209610500565b6040516102169190611c12565b60405180910390f35b61022761050f565b005b610243600480360381019061023e9190611c2d565b610521565b005b61024d610535565b60405161025a9190611b2a565b60405180910390f35b61027d60048036038101906102789190611c5a565b61054c565b60405161028a9190611b54565b60405180910390f35b61029b610594565b005b6102b760048036038101906102b29190611acf565b6105a8565b005b6102d360048036038101906102ce9190611c5a565b6105c8565b6040516102e09190611b54565b60405180910390f35b6102f16105da565b005b6102fb6105ec565b60405161030e9796959493929190611d8f565b60405180910390f35b61031f610696565b60405161032c9190611e13565b60405180910390f35b61033d6106c0565b60405161034a9190611b54565b60405180910390f35b61035b6106e4565b6040516103689190611a14565b60405180910390f35b61038b60048036038101906103869190611acf565b610776565b6040516103989190611b2a565b60405180910390f35b6103bb60048036038101906103b69190611e86565b610799565b005b6103d760048036038101906103d29190611f28565b6108e1565b6040516103e49190611b54565b60405180910390f35b61040760048036038101906104029190611c5a565b610968565b005b60606003805461041890611f97565b80601f016020809104026020016040519081016040528092919081815260200182805461044490611f97565b80156104915780601f1061046657610100808354040283529160200191610491565b820191906000526020600020905b81548152906001019060200180831161047457829003601f168201915b5050505050905090565b6000806104a66109ee565b90506104b38185856109f6565b600191505092915050565b6000600254905090565b6000806104d36109ee565b90506104e0858285610a08565b6104eb858585610a9c565b60019150509392505050565b60006012905090565b600061050a610b90565b905090565b610517610c47565b61051f610cce565b565b61053261052c6109ee565b82610d31565b50565b6000600860009054906101000a900460ff16905090565b60008060008373ffffffffffffffffffffffffffffffffffffffff1673ffffffffffffffffffffffffffffffffffffffff168152602001908152602001600020549050919050565b61059c610c47565b6105a66000610db3565b565b6105ba826105b46109ee565b83610a08565b6105c48282610d31565b5050565b60006105d382610e79565b9050919050565b6105e2610c47565b6105ea610ec2565b565b600060608060008060006060610600610f25565b610608610f60565b46306000801b600067ffffffffffffffff81111561062957610628611fc8565b5b6040519080825280602002602001820160405280156106575781602001602082028036833780820191505090505b507f0f00000000000000000000000000000000000000000000000000000000000000959493929190965096509650965096509650965090919293949596565b6000600860019054906101000a900473ffffffffffffffffffffffffffffffffffffffff16905090565b7f000000000000000000000000000000000000000000000000000000000000000081565b6060600480546106f390611f97565b80601f016020809104026020016040519081016040528092919081815260200182805461071f90611f97565b801561076c5780601f106107415761010080835404028352916020019161076c565b820191906000526020600020905b81548152906001019060200180831161074f57829003601f168201915b5050505050905090565b6000806107816109ee565b905061078e818585610a9c565b600191505092915050565b834211156107de57836040517f627913020000000000000000000000000000000000000000000000000000000081526004016107d59190611b54565b60405180910390fd5b60007f6e71edae12b1b97f4d1f60370fef10105fa2faae0126114a169c64845d6126c988888861080d8c610f9b565b8960405160200161082396959493929190611ff7565b604051602081830303815290604052805190602001209050600061084682610ff2565b905060006108568287878761100c565b90508973ffffffffffffffffffffffffffffffffffffffff168173ffffffffffffffffffffffffffffffffffffffff16146108ca57808a6040517f4b800e460000000000000000000000000000000000000000000000000000000081526004016108c1929190612058565b60405180910390fd5b6108d58a8a8a6109f6565b50505050505050505050565b6000600160008473ffffffffffffffffffffffffffffffffffffffff1673ffffffffffffffffffffffffffffffffffffffff16815260200190815260200160002060008373ffffffffffffffffffffffffffffffffffffffff1673ffffffffffffffffffffffffffffffffffffffff16815260200190815260200160002054905092915050565b610970610c47565b600073ffffffffffffffffffffffffffffffffffffffff168173ffffffffffffffffffffffffffffffffffffffff16036109e25760006040517f1e4fbdf70000000000000000000000000000000000000000000000000000000081526004016109d99190611e13565b60405180910390fd5b6109eb81610db3565b50565b600033905090565b610a03838383600161103c565b505050565b6000610a1484846108e1565b90507fffffffffffffffffffffffffffffffffffffffffffffffffffffffffffffffff8114610a965781811015610a86578281836040517ffb8f41b2000000000000000000000000000000000000000000000000000000008152600401610a7d93929190612081565b60405180910390fd5b610a958484848403600061103c565b5b50505050565b600073ffffffffffffffffffffffffffffffffffffffff168373ffffffffffffffffffffffffffffffffffffffff1603610b0e5760006040517f96c6fd1e000000000000000000000000000000000000000000000000000000008152600401610b059190611e13565b60405180910390fd5b600073ffffffffffffffffffffffffffffffffffffffff168273ffffffffffffffffffffffffffffffffffffffff1603610b805760006040517fec442f05000000000000000000000000000000000000000000000000000000008152600401610b779190611e13565b60405180910390fd5b610b8b838383611213565b505050565b60007f000000000000000000000000000000000000000000000000000000000000000073ffffffffffffffffffffffffffffffffffffffff163073ffffffffffffffffffffffffffffffffffffffff16148015610c0c57507f000000000000000000000000000000000000000000000000000000000000000046145b15610c39577f00000000000000000000000000000000000000000000000000000000000000009050610c44565b610c41611223565b90505b90565b610c4f6109ee565b73ffffffffffffffffffffffffffffffffffffffff16610c6d610696565b73ffffffffffffffffffffffffffffffffffffffff1614610ccc57610c906109ee565b6040517f118cdaa7000000000000000000000000000000000000000000000000000000008152600401610cc39190611e13565b60405180910390fd5b565b610cd66112b9565b6000600860006101000a81548160ff0219169083151502179055507f5db9ee0a495bf2e6ff9c91a7834c1ba4fdd244a5e8aa4e537bd38aeae4b073aa610d1a6109ee565b604051610d279190611e13565b60405180910390a1565b600073ffffffffffffffffffffffffffffffffffffffff168273ffffffffffffffffffffffffffffffffffffffff1603610da35760006040517f96c6fd1e000000000000000000000000000000000000000000000000000000008152600401610d9a9190611e13565b60405180910390fd5b610daf82600083611213565b5050565b6000600860019054906101000a900473ffffffffffffffffffffffffffffffffffffffff16905081600860016101000a81548173ffffffffffffffffffffffffffffffffffffffff021916908373ffffffffffffffffffffffffffffffffffffffff1602179055508173ffffffffffffffffffffffffffffffffffffffff168173ffffffffffffffffffffffffffffffffffffffff167f8be0079c531659141344cd1fd0a4f28419497f9722a3daafe3b4186f6b6457e060405160405180910390a35050565b6000600760008373ffffffffffffffffffffffffffffffffffffffff1673ffffffffffffffffffffffffffffffffffffffff168152602001908152602001600020549050919050565b610eca6112f9565b6001600860006101000a81548160ff0219169083151502179055507f62e78cea01bee320cd4e420270b5ea74000d11b0c9f74754ebdbfc544b05a258610f0e6109ee565b604051610f1b9190611e13565b60405180910390a1565b6060610f5b60057f000000000000000000000000000000000000000000000000000000000000000061133a90919063ffffffff16565b905090565b6060610f9660067f000000000000000000000000000000000000000000000000000000000000000061133a90919063ffffffff16565b905090565b6000600760008373ffffffffffffffffffffffffffffffffffffffff1673ffffffffffffffffffffffffffffffffffffffff1681526020019081526020016000206000815480929190600101919050559050919050565b6000611005610fff610b90565b836113ea565b9050919050565b60008060008061101e8888888861142b565b92509250925061102e828261151f565b829350505050949350505050565b600073ffffffffffffffffffffffffffffffffffffffff168473ffffffffffffffffffffffffffffffffffffffff16036110ae5760006040517fe602df050000000000000000000000000000000000000000000000000000000081526004016110a59190611e13565b60405180910390fd5b600073ffffffffffffffffffffffffffffffffffffffff168373ffffffffffffffffffffffffffffffffffffffff16036111205760006040517f94280d620000000000000000000000000000000000000000000000000000000081526004016111179190611e13565b60405180910390fd5b81600160008673ffffffffffffffffffffffffffffffffffffffff1673ffffffffffffffffffffffffffffffffffffffff16815260200190815260200160002060008573ffffffffffffffffffffffffffffffffffffffff1673ffffffffffffffffffffffffffffffffffffffff16815260200190815260200160002081905550801561120d578273ffffffffffffffffffffffffffffffffffffffff168473ffffffffffffffffffffffffffffffffffffffff167f8c5be1e5ebec7d5bd14f71427d1e84f3dd0314c0f7b2291e5b200ac8c7c3b925846040516112049190611b54565b60405180910390a35b50505050565b61121e838383611683565b505050565b60007f8b73c3c69bb8fe3d512ecc4cf759cc79239f7b179b0ffacaa9a75d522b39400f7f00000000000000000000000000000000000000000000000000000000000000007f0000000000000000000000000000000000000000000000000000000000000000463060405160200161129e9594939291906120b8565b60405160208183030381529060405280519060200120905090565b6112c1610535565b6112f7576040517f8dfc202b00000000000000000000000000000000000000000000000000000000815260040160405180910390fd5b565b611301610535565b15611338576040517fd93c066500000000000000000000000000000000000000000000000000000000815260040160405180910390fd5b565b606060ff60001b8314611357576113508361169b565b90506113e4565b81805461136390611f97565b80601f016020809104026020016040519081016040528092919081815260200182805461138f90611f97565b80156113dc5780601f106113b1576101008083540402835291602001916113dc565b820191906000526020600020905b8154815290600101906020018083116113bf57829003601f168201915b505050505090505b92915050565b60006040517f190100000000000000000000000000000000000000000000000000000000000081528360028201528260228201526042812091505092915050565b60008060007f7fffffffffffffffffffffffffffffff5d576e7357a4501ddfe92f46681b20a08460001c111561146b576000600385925092509250611515565b600060018888888860405160008152602001604052604051611490949392919061210b565b6020604051602081039080840390855afa1580156114b2573d6000803e3d6000fd5b505050602060405103519050600073ffffffffffffffffffffffffffffffffffffffff168173ffffffffffffffffffffffffffffffffffffffff160361150657600060016000801b93509350935050611515565b8060008060001b935093509350505b9450945094915050565b6000600381111561153357611532612150565b5b82600381111561154657611545612150565b5b031561167f57600160038111156115605761155f612150565b5b82600381111561157357611572612150565b5b036115aa576040517ff645eedf00000000000000000000000000000000000000000000000000000000815260040160405180910390fd5b600260038111156115be576115bd612150565b5b8260038111156115d1576115d0612150565b5b03611616578060001c6040517ffce698f700000000000000000000000000000000000000000000000000000000815260040161160d9190611b54565b60405180910390fd5b60038081111561162957611628612150565b5b82600381111561163c5761163b612150565b5b0361167e57806040517fd78bce0c0000000000000000000000000000000000000000000000000000000081526004016116759190611c12565b60405180910390fd5b5b5050565b61168b6112f9565b61169683838361170f565b505050565b606060006116a883611934565b90506000602067ffffffffffffffff8111156116c7576116c6611fc8565b5b6040519080825280601f01601f1916602001820160405280156116f95781602001600182028036833780820191505090505b5090508181528360208201528092505050919050565b600073ffffffffffffffffffffffffffffffffffffffff168373ffffffffffffffffffffffffffffffffffffffff160361176157806002600082825461175591906121ae565b92505081905550611834565b60008060008573ffffffffffffffffffffffffffffffffffffffff1673ffffffffffffffffffffffffffffffffffffffff168152602001908152602001600020549050818110156117ed578381836040517fe450d38c0000000000000000000000000000000000000000000000000000000081526004016117e493929190612081565b60405180910390fd5b8181036000808673ffffffffffffffffffffffffffffffffffffffff1673ffffffffffffffffffffffffffffffffffffffff16815260200190815260200160002081905550505b600073ffffffffffffffffffffffffffffffffffffffff168273ffffffffffffffffffffffffffffffffffffffff160361187d57806002600082825403925050819055506118ca565b806000808473ffffffffffffffffffffffffffffffffffffffff1673ffffffffffffffffffffffffffffffffffffffff168152602001908152602001600020600082825401925050819055505b8173ffffffffffffffffffffffffffffffffffffffff168373ffffffffffffffffffffffffffffffffffffffff167fddf252ad1be2c89b69c2b068fc378daa952ba7f163c4a11628f55a4df523b3ef836040516119279190611b54565b60405180910390a3505050565b60008060ff8360001c169050601f81111561197b576040517fb3512b0c00000000000000000000000000000000000000000000000000000000815260040160405180910390fd5b80915050919050565b600081519050919050565b600082825260208201905092915050565b60005b838110156119be5780820151818401526020810190506119a3565b60008484015250505050565b6000601f19601f8301169050919050565b60006119e682611984565b6119f0818561198f565b9350611a008185602086016119a0565b611a09816119ca565b840191505092915050565b60006020820190508181036000830152611a2e81846119db565b905092915050565b600080fd5b600073ffffffffffffffffffffffffffffffffffffffff82169050919050565b6000611a6682611a3b565b9050919050565b611a7681611a5b565b8114611a8157600080fd5b50565b600081359050611a9381611a6d565b92915050565b6000819050919050565b611aac81611a99565b8114611ab757600080fd5b50565b600081359050611ac981611aa3565b92915050565b60008060408385031215611ae657611ae5611a36565b5b6000611af485828601611a84565b9250506020611b0585828601611aba565b9150509250929050565b60008115159050919050565b611b2481611b0f565b82525050565b6000602082019050611b3f6000830184611b1b565b92915050565b611b4e81611a99565b82525050565b6000602082019050611b696000830184611b45565b92915050565b600080600060608486031215611b8857611b87611a36565b5b6000611b9686828701611a84565b9350506020611ba786828701611a84565b9250506040611bb886828701611aba565b9150509250925092565b600060ff82169050919050565b611bd881611bc2565b82525050565b6000602082019050611bf36000830184611bcf565b92915050565b6000819050919050565b611c0c81611bf9565b82525050565b6000602082019050611c276000830184611c03565b92915050565b600060208284031215611c4357611c42611a36565b5b6000611c5184828501611aba565b91505092915050565b600060208284031215611c7057611c6f611a36565b5b6000611c7e84828501611a84565b91505092915050565b60007fff0000000000000000000000000000000000000000000000000000000000000082169050919050565b611cbc81611c87565b82525050565b611ccb81611a5b565b82525050565b600081519050919050565b600082825260208201905092915050565b6000819050602082019050919050565b611d0681611a99565b82525050565b6000611d188383611cfd565b60208301905092915050565b6000602082019050919050565b6000611d3c82611cd1565b611d468185611cdc565b9350611d5183611ced565b8060005b83811015611d82578151611d698882611d0c565b9750611d7483611d24565b925050600181019050611d55565b5085935050505092915050565b600060e082019050611da4600083018a611cb3565b8181036020830152611db681896119db565b90508181036040830152611dca81886119db565b9050611dd96060830187611b45565b611de66080830186611cc2565b611df360a0830185611c03565b81810360c0830152611e058184611d31565b905098975050505050505050565b6000602082019050611e286000830184611cc2565b92915050565b611e3781611bc2565b8114611e4257600080fd5b50565b600081359050611e5481611e2e565b92915050565b611e6381611bf9565b8114611e6e57600080fd5b50565b600081359050611e8081611e5a565b92915050565b600080600080600080600060e0888a031215611ea557611ea4611a36565b5b6000611eb38a828b01611a84565b9750506020611ec48a828b01611a84565b9650506040611ed58a828b01611aba565b9550506060611ee68a828b01611aba565b9450506080611ef78a828b01611e45565b93505060a0611f088a828b01611e71565b92505060c0611f198a828b01611e71565b91505092959891949750929550565b60008060408385031215611f3f57611f3e611a36565b5b6000611f4d85828601611a84565b9250506020611f5e85828601611a84565b9150509250929050565b7f4e487b7100000000000000000000000000000000000000000000000000000000600052602260045260246000fd5b60006002820490506001821680611faf57607f821691505b602082108103611fc257611fc1611f68565b5b50919050565b7f4e487b7100000000000000000000000000000000000000000000000000000000600052604160045260246000fd5b600060c08201905061200c6000830189611c03565b6120196020830188611cc2565b6120266040830187611cc2565b6120336060830186611b45565b6120406080830185611b45565b61204d60a0830184611b45565b979650505050505050565b600060408201905061206d6000830185611cc2565b61207a6020830184611cc2565b9392505050565b60006060820190506120966000830186611cc2565b6120a36020830185611b45565b6120b06040830184611b45565b949350505050565b600060a0820190506120cd6000830188611c03565b6120da6020830187611c03565b6120e76040830186611c03565b6120f46060830185611b45565b6121016080830184611cc2565b9695505050505050565b60006080820190506121206000830187611c03565b61212d6020830186611bcf565b61213a6040830185611c03565b6121476060830184611c03565b95945050505050565b7f4e487b7100000000000000000000000000000000000000000000000000000000600052602160045260246000fd5b7f4e487b7100000000000000000000000000000000000000000000000000000000600052601160045260246000fd5b60006121b982611a99565b91506121c483611a99565b92508282019050808211156121dc576121db61217f565b5b9291505056fea2646970667358221220a1b4bfe33614ac927fd965ca7210a3ba8f4e89f6ebf5f441cf1f2c4a3ebdbde364736f6c634300081c0033",
  "linkReferences": {},
  "deployedLinkReferences": {}
}